{
  "_format": "hh-sol-artifact-1",
  "contractName": "StreamCreator",
  "sourceName": "contracts/sablier/StreamCreator.sol",
  "abi": [
    {
      "inputs": [
        {
          "internalType": "address",
          "name": "token",
          "type": "address"
        },
        {
          "internalType": "address",
          "name": "gameAddress",
          "type": "address"
        }
      ],
      "stateMutability": "nonpayable",
      "type": "constructor"
    },
    {
      "inputs": [],
      "name": "InvalidAmount",
      "type": "error"
    },
    {
      "inputs": [],
      "name": "InvalidCliff",
      "type": "error"
    },
    {
      "inputs": [],
      "name": "InvalidDuration",
      "type": "error"
    },
    {
      "inputs": [],
      "name": "InvalidStart",
      "type": "error"
    },
    {
      "inputs": [],
      "name": "InvalidStreamId",
      "type": "error"
    },
    {
      "inputs": [],
      "name": "NotAuthorised",
      "type": "error"
    },
    {
      "inputs": [
        {
          "internalType": "address",
          "name": "owner",
          "type": "address"
        }
      ],
      "name": "OwnableInvalidOwner",
      "type": "error"
    },
    {
      "inputs": [
        {
          "internalType": "address",
          "name": "account",
          "type": "address"
        }
      ],
      "name": "OwnableUnauthorizedAccount",
      "type": "error"
    },
    {
      "inputs": [],
      "name": "TokenTransferFailed",
      "type": "error"
    },
    {
      "inputs": [],
      "name": "ZeroAddress",
      "type": "error"
    },
    {
      "anonymous": false,
      "inputs": [
        {
          "indexed": true,
          "internalType": "address",
          "name": "previousOwner",
          "type": "address"
        },
        {
          "indexed": true,
          "internalType": "address",
          "name": "newOwner",
          "type": "address"
        }
      ],
      "name": "OwnershipTransferred",
      "type": "event"
    },
    {
      "inputs": [],
      "name": "GAME_ADDRESS",
      "outputs": [
        {
          "internalType": "address",
          "name": "",
          "type": "address"
        }
      ],
      "stateMutability": "view",
      "type": "function"
    },
    {
      "inputs": [
        {
          "internalType": "address",
          "name": "recipient",
          "type": "address"
        },
        {
          "internalType": "uint256",
          "name": "totalAmount",
          "type": "uint256"
        },
        {
          "internalType": "uint40",
          "name": "duration",
          "type": "uint40"
        },
        {
          "internalType": "uint40",
          "name": "unlockAfter",
          "type": "uint40"
        },
        {
          "internalType": "uint40",
          "name": "start",
          "type": "uint40"
        }
      ],
      "name": "createLockupLinearStream",
      "outputs": [
        {
          "internalType": "uint256",
          "name": "streamId",
          "type": "uint256"
        }
      ],
      "stateMutability": "nonpayable",
      "type": "function"
    },
    {
      "inputs": [
        {
          "internalType": "uint256",
          "name": "streamId",
          "type": "uint256"
        }
      ],
      "name": "getStream",
      "outputs": [
        {
          "components": [
            {
              "internalType": "address",
              "name": "sender",
              "type": "address"
            },
            {
              "internalType": "address",
              "name": "recipient",
              "type": "address"
            },
            {
              "internalType": "uint40",
              "name": "startTime",
              "type": "uint40"
            },
            {
              "internalType": "bool",
              "name": "isCancelable",
              "type": "bool"
            },
            {
              "internalType": "bool",
              "name": "wasCanceled",
              "type": "bool"
            },
            {
              "internalType": "contract IERC20",
              "name": "asset",
              "type": "address"
            },
            {
              "internalType": "uint40",
              "name": "endTime",
              "type": "uint40"
            },
            {
              "internalType": "bool",
              "name": "isDepleted",
              "type": "bool"
            },
            {
              "internalType": "bool",
              "name": "isStream",
              "type": "bool"
            },
            {
              "internalType": "bool",
              "name": "isTransferable",
              "type": "bool"
            },
            {
              "components": [
                {
                  "internalType": "uint128",
                  "name": "deposited",
                  "type": "uint128"
                },
                {
                  "internalType": "uint128",
                  "name": "withdrawn",
                  "type": "uint128"
                },
                {
                  "internalType": "uint128",
                  "name": "refunded",
                  "type": "uint128"
                }
              ],
              "internalType": "struct Lockup.Amounts",
              "name": "amounts",
              "type": "tuple"
            },
            {
              "internalType": "uint40",
              "name": "cliffTime",
              "type": "uint40"
            }
          ],
          "internalType": "struct LockupLinear.StreamLL",
          "name": "stream",
          "type": "tuple"
        }
      ],
      "stateMutability": "view",
      "type": "function"
    },
    {
      "inputs": [],
      "name": "owner",
      "outputs": [
        {
          "internalType": "address",
          "name": "",
          "type": "address"
        }
      ],
      "stateMutability": "view",
      "type": "function"
    },
    {
      "inputs": [],
      "name": "renounceOwnership",
      "outputs": [],
      "stateMutability": "nonpayable",
      "type": "function"
    },
    {
      "inputs": [],
      "name": "sablier",
      "outputs": [
        {
          "internalType": "contract ISablierV2LockupLinear",
          "name": "",
          "type": "address"
        }
      ],
      "stateMutability": "view",
      "type": "function"
    },
    {
      "inputs": [],
      "name": "streamingToken",
      "outputs": [
        {
          "internalType": "contract IERC20",
          "name": "",
          "type": "address"
        }
      ],
      "stateMutability": "view",
      "type": "function"
    },
    {
      "inputs": [
        {
          "internalType": "address",
          "name": "newOwner",
          "type": "address"
        }
      ],
      "name": "transferOwnership",
      "outputs": [],
      "stateMutability": "nonpayable",
      "type": "function"
    },
    {
      "inputs": [
        {
          "internalType": "address",
          "name": "",
          "type": "address"
        },
        {
          "internalType": "uint256",
          "name": "",
          "type": "uint256"
        }
      ],
      "name": "userStreams",
      "outputs": [
        {
          "internalType": "uint256",
          "name": "",
          "type": "uint256"
        }
      ],
      "stateMutability": "view",
      "type": "function"
    }
  ],
  "bytecode": "0x60e060405234801561001057600080fd5b5060405161a93238038061a93283398101604081905261002f91610180565b338061005557604051631e4fbdf760e01b81526000600482015260240160405180910390fd5b61005e816100fa565b506001600160a01b03808316608052811660c0526040516000906100819061014a565b604051809103906000f08015801561009d573d6000803e3d6000fd5b509050600033826040516100b090610157565b6001600160a01b03928316815291166020820152604001604051809103906000f0801580156100e3573d6000803e3d6000fd5b506001600160a01b031660a052506101b392505050565b600080546001600160a01b038381166001600160a01b0319831681178455604051919092169283917f8be0079c531659141344cd1fd0a4f28419497f9722a3daafe3b4186f6b6457e09190a35050565b61518180610f5c83390190565b614855806160dd83390190565b80516001600160a01b038116811461017b57600080fd5b919050565b6000806040838503121561019357600080fd5b61019c83610164565b91506101aa60208401610164565b90509250929050565b60805160a05160c051610d4a61021260003960008181610102015281816101ea015261030801526000818160c301528181610372015281816105310152610684015260008181610177015281816103a101526104a40152610d4a6000f3fe608060405234801561001057600080fd5b50600436106100935760003560e01c8063715018a611610066578063715018a614610137578063894e9a0d146101415780638da5cb5b14610161578063d061c06114610172578063f2fde38b1461019957600080fd5b8063020055f914610098578063482879aa146100be5780635b96f6af146100fd578063662eaa5414610124575b600080fd5b6100ab6100a63660046107d3565b6101ac565b6040519081526020015b60405180910390f35b6100e57f000000000000000000000000000000000000000000000000000000000000000081565b6040516001600160a01b0390911681526020016100b5565b6100e57f000000000000000000000000000000000000000000000000000000000000000081565b6100ab610132366004610812565b6101dd565b61013f6105dd565b005b61015461014f36600461087a565b6105f1565b6040516100b59190610893565b6000546001600160a01b03166100e5565b6100e57f000000000000000000000000000000000000000000000000000000000000000081565b61013f6101a73660046109d8565b6106fe565b600160205281600052604060002081815481106101c857600080fd5b90600052602060002001600091509150505481565b6000336001600160a01b037f000000000000000000000000000000000000000000000000000000000000000016148061022057506000546001600160a01b031633145b61023d57604051631648fd0160e01b815260040160405180910390fd5b6001600160a01b0386166102645760405163d92e233d60e01b815260040160405180910390fd5b8164ffffffffff1660000361028c57604051630e0d5b9360e21b815260040160405180910390fd5b8364ffffffffff166000036102b457604051637616640160e01b815260040160405180910390fd5b8264ffffffffff166000036102dc57604051630a15cca960e21b815260040160405180910390fd5b846000036102fd5760405163162908e360e11b815260040160405180910390fd5b336001600160a01b037f000000000000000000000000000000000000000000000000000000000000000016148061033e57506000546001600160a01b031633145b61035b57604051631648fd0160e01b815260040160405180910390fd5b60405163095ea7b360e01b81526001600160a01b037f000000000000000000000000000000000000000000000000000000000000000081166004830152602482018790527f0000000000000000000000000000000000000000000000000000000000000000169063095ea7b3906044016020604051808303816000875af11580156103ea573d6000803e3d6000fd5b505050506040513d601f19601f8201168201806040525081019061040e9190610a11565b5061047860408051610100810182526000808252602080830182905282840182905260608084018390526080840183905260a084018390528451908101855282815280820183905280850183905260c084015283518085019094528184528301529060e082015290565b3381526001600160a01b038781166020808401919091526001600160801b0388166040808501919091527f0000000000000000000000000000000000000000000000000000000000000000909216606080850191909152600060808501528251908101835264ffffffffff80871682528716918101919091529081016104fe8786610a2c565b64ffffffffff16905260c08201526040805180820182526000808252602082015260e0830152516353b1572760e01b81527f00000000000000000000000000000000000000000000000000000000000000006001600160a01b0316906353b157279061056e908490600401610a57565b6020604051808303816000875af115801561058d573d6000803e3d6000fd5b505050506040513d601f19601f820116820180604052508101906105b19190610b26565b336000908152600160208181526040832080549283018155835290912001819055979650505050505050565b6105e5610741565b6105ef600061076e565b565b61066e60408051610180810182526000808252602080830182905282840182905260608084018390526080840183905260a0840183905260c0840183905260e08401839052610100840183905261012084018390528451908101855282815290810182905292830152906101408201908152600060209091015290565b60405163894e9a0d60e01b8152600481018390527f00000000000000000000000000000000000000000000000000000000000000006001600160a01b03169063894e9a0d906024016101c060405180830381865afa1580156106d4573d6000803e3d6000fd5b505050506040513d601f19601f820116820180604052508101906106f89190610c21565b92915050565b610706610741565b6001600160a01b03811661073557604051631e4fbdf760e01b8152600060048201526024015b60405180910390fd5b61073e8161076e565b50565b6000546001600160a01b031633146105ef5760405163118cdaa760e01b815233600482015260240161072c565b600080546001600160a01b038381166001600160a01b0319831681178455604051919092169283917f8be0079c531659141344cd1fd0a4f28419497f9722a3daafe3b4186f6b6457e09190a35050565b6001600160a01b038116811461073e57600080fd5b600080604083850312156107e657600080fd5b82356107f1816107be565b946020939093013593505050565b64ffffffffff8116811461073e57600080fd5b600080600080600060a0868803121561082a57600080fd5b8535610835816107be565b945060208601359350604086013561084c816107ff565b9250606086013561085c816107ff565b9150608086013561086c816107ff565b809150509295509295909350565b60006020828403121561088c57600080fd5b5035919050565b81516001600160a01b031681526101c0810160208301516108bf60208401826001600160a01b03169052565b5060408301516108d8604084018264ffffffffff169052565b5060608301516108ec606084018215159052565b506080830151610900608084018215159052565b5060a083015161091b60a08401826001600160a01b03169052565b5060c083015161093460c084018264ffffffffff169052565b5060e083015161094860e084018215159052565b5061010083015161095e61010084018215159052565b5061012083015161097461012084018215159052565b506101408301516109bb6101408401826001600160801b0381511682526001600160801b0360208201511660208301526001600160801b0360408201511660408301525050565b5061016083015164ffffffffff81166101a08401525b5092915050565b6000602082840312156109ea57600080fd5b81356109f5816107be565b9392505050565b80518015158114610a0c57600080fd5b919050565b600060208284031215610a2357600080fd5b6109f5826109fc565b64ffffffffff81811683821601908111156106f857634e487b7160e01b600052601160045260246000fd5b81516001600160a01b0390811682526020808401518216908301526040808401516001600160801b03169083015260608084015191821690830152610160820190506080830151610aac608084018215159052565b5060a0830151610ac060a084018215159052565b5060c0830151610aff60c084018264ffffffffff815116825264ffffffffff602082015116602083015264ffffffffff60408201511660408301525050565b5060e083015180516001600160a01b031661012084015260208101516101408401526109d1565b600060208284031215610b3857600080fd5b5051919050565b604051610180810167ffffffffffffffff81118282101715610b7157634e487b7160e01b600052604160045260246000fd5b60405290565b8051610a0c816107be565b8051610a0c816107ff565b80516001600160801b0381168114610a0c57600080fd5b600060608284031215610bb657600080fd5b6040516060810167ffffffffffffffff81118282101715610be757634e487b7160e01b600052604160045260246000fd5b604052905080610bf683610b8d565b8152610c0460208401610b8d565b6020820152610c1560408401610b8d565b60408201525092915050565b60006101c0828403128015610c3557600080fd5b50610c3e610b3f565b610c4783610b77565b8152610c5560208401610b77565b6020820152610c6660408401610b82565b6040820152610c77606084016109fc565b6060820152610c88608084016109fc565b6080820152610c9960a08401610b77565b60a0820152610caa60c08401610b82565b60c0820152610cbb60e084016109fc565b60e0820152610ccd61010084016109fc565b610100820152610ce061012084016109fc565b610120820152610cf4846101408501610ba4565b610140820152610d076101a08401610b82565b610160820152939250505056fea26469706673582212204c9b8ce4c35fde13acb2fdf3ebdef41744216ca585dc007ed6d7dd391783ffda64736f6c634300081b00336080604052348015600f57600080fd5b506151628061001f6000396000f3fe608060405234801561001057600080fd5b506004361061002b5760003560e01c8063e9dc637514610030575b600080fd5b61004361003e366004612113565b610059565b604051610050919061218f565b60405180910390f35b604080516101a08101825260008082526060602083018190529282018190528282018190526080820183905260a0820183905260e0820183905261010082018390526101208201839052610140820183905261016082018190526101808201526001600160a01b03841660c08201526100d1846106ca565b60e08201526100e86001600160a01b038516610891565b61010082015260c0810151604051631d591eb760e31b8152600481018590526001600160a01b039091169063eac8f5b890602401602060405180830381865afa158015610139573d6000803e3d6000fd5b505050506040513d601f19601f8201168201806040525081019061015d91906121a2565b6001600160a01b0316808252610172906108ad565b602082015260c081015160405163a80fc07160e01b8152600481018590526001600160a01b039091169063a80fc07190602401602060405180830381865afa1580156101c2573d6000803e3d6000fd5b505050506040513d601f19601f820116820180604052508101906101e691906121bf565b6001600160801b031660408281019190915260c08201519051632b4d7bf560e21b81526004810185905261026d916001600160a01b03169063ad35efd490602401602060405180830381865afa158015610244573d6000803e3d6000fd5b505050506040513d601f19601f8201168201806040525081019061026891906121e8565b610a05565b61012082015260c0810151604051634869e12d60e01b8152600481018590526102ee916001600160a01b031690634869e12d90602401602060405180830381865afa1580156102c0573d6000803e3d6000fd5b505050506040513d601f19601f820116820180604052508101906102e491906121bf565b8260400151610b1e565b6101608201526040805161014081019091526104a6908061030f8787610b57565b815260200161033a84604001516001600160801b03166103328660000151610c45565b60ff16610d01565b815260200161035584600001516001600160a01b0316610891565b8152602001836020015181526020016104608460c001516001600160a01b031663bc2be1be886040518263ffffffff1660e01b815260040161039991815260200190565b602060405180830381865afa1580156103b6573d6000803e3d6000fd5b505050506040513d601f19601f820116820180604052508101906103da9190612209565b64ffffffffff168560c001516001600160a01b0316639067b677896040518263ffffffff1660e01b815260040161041391815260200190565b602060405180830381865afa158015610430573d6000803e3d6000fd5b505050506040513d601f19601f820116820180604052508101906104549190612209565b64ffffffffff16610f21565b8152602001610473846101600151611019565b8152602001836101600151815260200183610100015181526020018360e001518152602001836101200151815250611074565b61014082015260c0810151604051602481018590526001600160a01b039091169060440160408051601f198184030181529181526020820180516001600160e01b031663b256456960e01b179052516104ff919061224c565b600060405180830381855afa9150503d806000811461053a576040519150601f19603f3d011682016040523d82523d6000602084013e61053f565b606091505b5060a08301521515610180820181905261055a576001610572565b8060a001518060200190518101906105729190612268565b15156060820152602081015160c0820151604051635cb8981560e11b81526004810186905261060f9291610604916001600160a01b039091169063b971302a90602401602060405180830381865afa1580156105d2573d6000803e3d6000fd5b505050506040513d601f19601f820116820180604052508101906105f691906121a2565b6001600160a01b0316610891565b836101200151611297565b61064b8260e00151836020015184610100015161063886600001516001600160a01b0316610891565b610641896112c7565b876060015161135a565b6106618360e0015161065c876112c7565b6113d8565b61066f846101400151611404565b604051602001610682949392919061228a565b60408051601f19818403018152919052608082018190526106a290611404565b6040516020016106b2919061239e565b60405160208183030381529060405291505092915050565b60606000826001600160a01b03166395d89b416040518163ffffffff1660e01b8152600401600060405180830381865afa15801561070c573d6000803e3d6000fd5b505050506040513d6000823e601f3d908101601f1916820160405261073491908101906123f9565b90506107726040518060400160405280601181526020017029a0a116ab1916a627a1a5aaa816a624a760791b8152508261142a90919063ffffffff16565b156107a257505060408051808201909152600d81526c2637b1b5bab8102634b732b0b960991b6020820152919050565b60408051808201909152601181527029a0a116ab1916a627a1a5aaa816a22ca760791b60208201526107d590829061142a565b1561080657505060408051808201909152600e81526d4c6f636b75702044796e616d696360901b6020820152919050565b6040805180820190915260118152705341422d56322d4c4f434b55502d54524160781b602082015261083990829061142a565b1561086b57505060408051808201909152600f81526e131bd8dadd5c08151c985b98da1959608a1b6020820152919050565b82816040516340a5451760e11b81526004016108889291906124ae565b60405180910390fd5b60606108a76001600160a01b0383166014611450565b92915050565b60408051600481526024810182526020810180516001600160e01b03166395d89b4160e01b179052905160609160009182916001600160a01b038616916108f4919061224c565b600060405180830381855afa9150503d806000811461092f576040519150601f19603f3d011682016040523d82523d6000602084013e610934565b606091505b509150915081158061094857506040815111155b15610971575050604080518082019091526005815264045524332360dc1b602082015292915050565b60008180602001905181019061098791906123f9565b9050601e815111156109be57505060408051808201909152600b81526a131bdb99c814de5b589bdb60aa1b60208201529392505050565b6109c7816115c8565b6109fd575050604080518082019091526012815271155b9cdd5c1c1bdc9d19590814de5b589bdb60721b60208201529392505050565b949350505050565b60606004826004811115610a1b57610a1b6124d2565b03610a4457505060408051808201909152600881526711195c1b195d195960c21b602082015290565b6003826004811115610a5857610a586124d2565b03610a8157505060408051808201909152600881526710d85b98d95b195960c21b602082015290565b6001826004811115610a9557610a956124d2565b03610abf57505060408051808201909152600981526853747265616d696e6760b81b602082015290565b6002826004811115610ad357610ad36124d2565b03610afb57505060408051808201909152600781526614d95d1d1b195960ca1b602082015290565b505060408051808201909152600781526650656e64696e6760c81b602082015290565b6000816001600160801b031683612710026001600160801b031681610b4557610b456124e8565b046001600160801b0316905092915050565b604080514660208201819052606085811b6bffffffffffffffffffffffff191693830193909352605482018490529060009060740160408051601f1981840301815291905280516020909101209050600061016861ffff601084901c160663ffffffff16905060006050600884901c60ff160660140163ffffffff169050600060468460ff1663ffffffff1681610bf057610bf06124e8565b06601e0163ffffffff169050610c05836112c7565b610c0e836112c7565b610c17836112c7565b604051602001610c29939291906124fe565b6040516020818303038152906040529550505050505092915050565b60408051600481526024810182526020810180516001600160e01b031663313ce56760e01b1790529051600091829182916001600160a01b03861691610c8b919061224c565b600060405180830381855afa9150503d8060008114610cc6576040519150601f19603f3d011682016040523d82523d6000602084013e610ccb565b606091505b5091509150818015610cde575080516020145b15610cf757808060200190518101906109fd9190612581565b5060009392505050565b606082600003610d2957506040805180820190915260018152600360fc1b60208201526108a7565b60008215610d495782600a0a8481610d4357610d436124e8565b04610d4b565b835b90506001811015610d9a5760405180604001604052806004815260200163266c743b60e01b815250604051602001610d8391906125a4565b6040516020818303038152906040529150506108a7565b66038d7ea4c680008110610dd557604051806040016040528060048152602001632667743b60e01b815250604051602001610d8391906125ca565b6040805160c081018252600060a082018181528252825180840184526001808252604b60f81b6020838101919091528085019290925284518086018652818152604d60f81b818401528486015284518086018652818152602160f91b81840152606085015284518086019095528452601560fa1b90840152608082019290925290805b6103e88410610e79576064600a85040691506103e884049350600101610e58565b6000604051806040016040528060078152602001662623383830353b60c81b815250604051602001610eab91906125f6565b60405160208183030381529060405290506000610ec7866112c7565b90506000610ed4856116e4565b9050828282888760058110610eeb57610eeb61261b565b6020020151604051602001610f039493929190612631565b60405160208183030381529060405297505050505050505092915050565b606062015180838303046000819003610f615760405180604001604052806004815260200163266c743b60e01b815250604051602001610d839190612688565b61270f811115610f9857604051806040016040528060048152602001632667743b60e01b815250604051602001610d8391906126b2565b600081600114610fc55760405180604001604052806005815260200164204461797360d81b815250610fe3565b604051806040016040528060048152602001632044617960e01b8152505b9050610fee826112c7565b816040516020016110009291906126e0565b6040516020818303038152906040529250505092915050565b6060600061103061102b60648561270f565b6116e4565b90506000611047611042606486612739565b6112c7565b9050808260405160200161105c92919061274d565b60405160208183030381529060405292505050919050565b60606110e8604051806101c0016040528060608152602001600081526020016000815260200160608152602001600081526020016060815260200160008152602001600081526020016060815260200160008152602001600081526020016060815260200160008152602001600081525090565b61110960008460a001516111048660c001518760000151611753565b6117bb565b6101008301526101208083019190915283015161112890600190611881565b610160830152610180820152602083015161114590600290611881565b82526020820152608083015161115d90600390611881565b60a0830181905260c08301829052610180830151610120840151602080860151603095810183018401868101608089015260026103e891909103602f1901046101408801819052601093019283016101a088015291909201808301604080880191909152910190930160e0850152610100840151610160850151855194516111e9959294919301612631565b604051602081830303815290604052816060018190525060405180610100016040528060c78152602001613e5960c79139611232846000015185610120015184606001516118aa565b61124f8560e001518661010001518760400151886060015161193f565b61126d846101400151856101a0015186604001518760e00151611a4b565b6040516020016112809493929190612788565b604051602081830303815290604052915050919050565b60608383836040516020016112ae93929190612868565b60405160208183030381529060405290505b9392505050565b606060006112d483611a84565b600101905060008167ffffffffffffffff8111156112f4576112f46123e3565b6040519080825280601f01601f19166020018201604052801561131e576020820181803683370190505b5090508181016020015b600019016f181899199a1a9b1b9c1cb0b131b232b360811b600a86061a8153600a850494508461132857509392505050565b6060600082611381576040518060800160405280605b8152602001613dfe605b913961139b565b6040518060c00160405280609b815260200161407c609b91395b90508787858a898b8a876040516020016113bc989796959493929190612955565b6040516020818303038152906040529150509695505050505050565b606082826040516020016113ed929190612aed565b604051602081830303815290604052905092915050565b60606108a78260405180606001604052806040815260200161403c604091396001611b5c565b6000815183511480156112c0575081805190602001208380519060200120149392505050565b6060826000611460846002612b41565b61146b906002612b58565b67ffffffffffffffff811115611483576114836123e3565b6040519080825280601f01601f1916602001820160405280156114ad576020820181803683370190505b509050600360fc1b816000815181106114c8576114c861261b565b60200101906001600160f81b031916908160001a905350600f60fb1b816001815181106114f7576114f761261b565b60200101906001600160f81b031916908160001a905350600061151b856002612b41565b611526906001612b58565b90505b600181111561159e576f181899199a1a9b1b9c1cb0b131b232b360811b83600f166010811061155a5761155a61261b565b1a60f81b8282815181106115705761157061261b565b60200101906001600160f81b031916908160001a90535060049290921c9161159781612b6b565b9050611529565b5081156109fd5760405163e22e27eb60e01b81526004810186905260248101859052604401610888565b80516000908290825b818110156116d95760008382815181106115ed576115ed61261b565b01602001516001600160f81b0319169050600160fd1b8114602d60f81b82146000600360fc1b84108015906116305750603960f81b6001600160f81b0319851611155b90506000604160f81b6001600160f81b03198616108015906116605750602d60f91b6001600160f81b0319861611155b90506000606160f81b6001600160f81b03198716108015906116905750603d60f91b6001600160f81b0319871611155b9050848061169b5750835b806116a35750825b806116ab5750815b806116b35750805b6116c8575060009a9950505050505050505050565b5050505050508060010190506115d1565b506001949350505050565b60608160000361170257505060408051602081019091526000815290565b600a82101561173a57611714826112c7565b6040516020016117249190612b82565b6040516020818303038152906040529050919050565b611743826112c7565b6040516020016117249190612bac565b60608260000361177257506040805160208101909152600081526108a7565b60408051808201909152601081526f68736c283233302c3231252c3131252960801b6020820152826117a961104286612710612bd5565b6040516020016113ed93929190612be8565b6000606060006117ca86611cdc565b905060008660038111156117e0576117e06124d2565b03611816576040805160208101909152600081526117ff90859061142a565b1561180d5760909250611846565b60d09250611846565b6000611823826000611db5565b90506000611832876001611db5565b905061183e8282611e34565b602801945050505b80611850846112c7565b828787604051602001611867959493929190612db4565b604051602081830303815290604052915050935093915050565b6000606061189f8484604051806020016040528060008152506117bb565b915091509250929050565b6060604051806060016040528060338152602001614c396033913960405180610140016040528061011c8152602001613f2061011c9139604051806103a0016040528061037b815260200161411761037b91396040518060a0016040528060758152602001613ae06075913961191f88611e44565b61192888611fa1565b876040516020016112ae9796959493929190612fcf565b6060611989604051806040016040528060058152602001642d3130302560d81b815250868660405160200161197592919061308d565b6040516020818303038152906040526120e6565b6119ba60405180604001604052806002815260200161302560f01b815250878760405160200161197592919061308d565b6119ed604051806040016040528060048152602001632d35302560e01b81525086866040516020016119759291906130e1565b611a1f6040518060400160405280600381526020016235302560e81b81525087876040516020016119759291906130e1565b604051602001611a329493929190613121565b6040516020818303038152906040529050949350505050565b6060611a56856112c7565b611a5f856112c7565b611a68856112c7565b611a71856112c7565b604051602001611a3294939291906131c4565b60008072184f03e93ff9f4daa797ed6e38ed64bf6a1f0160401b8310611ac35772184f03e93ff9f4daa797ed6e38ed64bf6a1f0160401b830492506040015b6d04ee2d6d415b85acef81000000008310611aef576d04ee2d6d415b85acef8100000000830492506020015b662386f26fc100008310611b0d57662386f26fc10000830492506010015b6305f5e1008310611b25576305f5e100830492506008015b6127108310611b3957612710830492506004015b60648310611b4b576064830492506002015b600a83106108a75760010192915050565b60608351600003611b7c57506040805160208101909152600081526112c0565b600082611bad57600385516004611b939190612b41565b611b9e906002612b58565b611ba89190612739565b611bd2565b600385516002611bbd9190612b58565b611bc79190612739565b611bd2906004612b41565b905060008167ffffffffffffffff811115611bef57611bef6123e3565b6040519080825280601f01601f191660200182016040528015611c19576020820181803683370190505b50905060018501602082018788518901602081018051600082525b82841015611c8f576003840193508351603f8160121c168701518653600186019550603f81600c1c168701518653600186019550603f8160061c168701518653600186019550603f8116870151865350600185019450611c34565b905250508515611cd057600388510660018114611cb35760028114611cc657611cce565b603d6001830353603d6002830353611cce565b603d60018303535b505b50909695505050505050565b60606000826003811115611cf257611cf26124d2565b03611d1b57505060408051808201909152600881526750726f677265737360c01b602082015290565b6001826003811115611d2f57611d2f6124d2565b03611d5657505060408051808201909152600681526553746174757360d01b602082015290565b6002826003811115611d6a57611d6a6124d2565b03611d91575050604080518082019091526006815265105b5bdd5b9d60d21b602082015290565b5050604080518082019091526008815267223ab930ba34b7b760c11b602082015290565b8151600090808203611dcb5760009150506108a7565b600083611dd957600d611ddc565b60105b60ff1690506000805b83811015611e2857868181518110611dff57611dff61261b565b01602001516001600160f81b031916603b60f81b03611e1c578091505b93820193600101611de5565b50029091039392505050565b60008282188284110282186112c0565b60606000826040518060400160405280601081526020016f68736c283233302c3231252c3131252960801b815250604051602001611e83929190613419565b60408051601f198184030181528282018252601083526f68736c283233302c3231252c3131252960801b6020848101919091529151909350600092611eca92879201613519565b604051602081830303815290604052905060006040518060400160405280601081526020016f68736c283233302c3231252c3131252960801b81525085604051602001611f1892919061360c565b60408051601f198184030181528282018252601083526f68736c283233302c3231252c3131252960801b6020848101919091529151909350600092611f5f9289920161377b565b604051602081830303815290604052905083838383604051602001611f879493929190612631565b604051602081830303815290604052945050505050919050565b60606000611fd76040518060400160405280600781526020016614d95d1d1b195960ca1b8152508461142a90919063ffffffff16565b80612007575060408051808201909152600881526711195c1b195d195960c21b602082015261200790849061142a565b90506040518060c001604052806090815260200161509d60909139604051806102c001604052806102988152602001614e0561029891398261206457604051806101c001604052806101998152602001614c6c6101999139612075565b604051806020016040528060008152505b836120995760405180610120016040528060f88152602001613d0660f891396120b6565b604051806101e001604052806101b18152602001613b556101b191395b604051806107e001604052806107a781526020016144926107a791396040516020016112809594939291906138b7565b606082826040516020016113ed929190613953565b6001600160a01b038116811461211057600080fd5b50565b6000806040838503121561212657600080fd5b8235612131816120fb565b946020939093013593505050565b60005b8381101561215a578181015183820152602001612142565b50506000910152565b6000815180845261217b81602086016020860161213f565b601f01601f19169290920160200192915050565b6020815260006112c06020830184612163565b6000602082840312156121b457600080fd5b81516112c0816120fb565b6000602082840312156121d157600080fd5b81516001600160801b03811681146112c057600080fd5b6000602082840312156121fa57600080fd5b8151600581106112c057600080fd5b60006020828403121561221b57600080fd5b815164ffffffffff811681146112c057600080fd5b6000815161224281856020860161213f565b9290920192915050565b6000825161225e81846020870161213f565b9190910192915050565b60006020828403121561227a57600080fd5b815180151581146112c057600080fd5b6d3d9130ba3a3934b13aba32b9911d60911b815284516000906122b481600e850160208a0161213f565b6f16113232b9b1b934b83a34b7b7111d1160811b600e9184019182015285516122e481601e840160208a0161213f565b600e818301019150507f222c2265787465726e616c5f75726c223a2268747470733a2f2f7361626c696560108201526e391731b7b69116113730b6b2911d1160891b6030820152845161233e81603f84016020890161213f565b6010818301019150507f222c22696d616765223a22646174613a696d6167652f7376672b786d6c3b6261602f820152641cd94d8d0b60da1b604f8201526123886054820185612230565b61227d60f01b8152600201979650505050505050565b7f646174613a6170706c69636174696f6e2f6a736f6e3b6261736536342c0000008152600082516123d681601d85016020870161213f565b91909101601d0192915050565b634e487b7160e01b600052604160045260246000fd5b60006020828403121561240b57600080fd5b815167ffffffffffffffff81111561242257600080fd5b8201601f8101841361243357600080fd5b805167ffffffffffffffff81111561244d5761244d6123e3565b604051601f8201601f19908116603f0116810167ffffffffffffffff8111828210171561247c5761247c6123e3565b60405281815282820160200186101561249457600080fd5b6124a582602083016020860161213f565b95945050505050565b6001600160a01b03831681526040602082018190526000906109fd90830184612163565b634e487b7160e01b600052602160045260246000fd5b634e487b7160e01b600052601260045260246000fd5b630d0e6d8560e31b81526000845161251d81600485016020890161213f565b600b60fa1b600491840191820152845161253e81600584016020890161213f565b60048183010191505061094b60f21b6001820152835161256581600384016020880161213f565b61252960f01b6003929091019182015260050195945050505050565b60006020828403121561259357600080fd5b815160ff811681146112c057600080fd5b600082516125b681846020870161213f565b61203160f01b920191825250600201919050565b600082516125dc81846020870161213f565b67080e4e4e4b8e4e5560c21b920191825250600801919050565b6000825161260881846020870161213f565b600160fd1b920191825250600101919050565b634e487b7160e01b600052603260045260246000fd5b60008551612643818460208a0161213f565b855190830190612657818360208a0161213f565b855191019061266a81836020890161213f565b845191019061267d81836020880161213f565b019695505050505050565b6000825161269a81846020870161213f565b6520312044617960d01b920191825250600601919050565b600082516126c481846020870161213f565b692039393939204461797360b01b920191825250600a01919050565b600083516126f281846020880161213f565b83519083019061270681836020880161213f565b01949350505050565b60008261271e5761271e6124e8565b500690565b634e487b7160e01b600052601160045260246000fd5b600082612748576127486124e8565b500490565b6000835161275f81846020880161213f565b83519083019061277381836020880161213f565b602560f81b9101908152600101949350505050565b7f3c73766720786d6c6e733d22687474703a2f2f7777772e77332e6f72672f323081527f30302f737667222077696474683d223130303022206865696768743d2231303060208201527f30222076696577426f783d2230203020313030302031303030223e000000000060408201526000855161280c81605b850160208a0161213f565b85519083019061282381605b840160208a0161213f565b85519101605b019061283981836020890161213f565b845191019061284c81836020880161213f565b651e17b9bb339f60d11b91019081526006019695505050505050565b7f5b7b2274726169745f74797065223a224173736574222c2276616c7565223a228152600084516128a081602085016020890161213f565b80830190507f227d2c7b2274726169745f74797065223a2253656e646572222c2276616c7565602082015262111d1160e91b604082015284516128ea81604384016020890161213f565b6020818301019150507f227d2c7b2274726169745f74797065223a22537461747573222c2276616c7565602382015262111d1160e91b6043820152835161293881604684016020880161213f565b62227d5d60e81b6046929091019182015260490195945050505050565b7f54686973204e465420726570726573656e74732061207061796d656e7420737481527403932b0b69034b710309029b0b13634b2b9102b191605d1b6020820152600089516129ab816035850160208e0161213f565b7f20636f6e74726163742e20546865206f776e6572206f662074686973204e46546035918401918201527f2063616e207769746864726177207468652073747265616d656420617373657460558201527f732c207768696368206172652064656e6f6d696e6174656420696e20000000006075820152612a2e609182018b612230565b710172e372e37169029ba3932b0b69024a21d160751b81529050612a55601282018a612230565b6302e3716960e51b81529050612a6e6004820189612230565b6901020b2323932b9b99d160b51b81529050612a8d600a820188612230565b6302e3716960e51b81529050612aa66004820187612230565b6901020b2323932b9b99d160b51b81529050612ac5600a820186612230565b632e372e3760e11b81529050612ade6004820185612230565b9b9a5050505050505050505050565b6a029b0b13634b2b9102b19160ad1b815260008351612b1381600b85016020880161213f565b61202360f01b600b918401918201528351612b3581600d84016020880161213f565b01600d01949350505050565b80820281158282048414176108a7576108a7612723565b808201808211156108a7576108a7612723565b600081612b7a57612b7a612723565b506000190190565b6102e360f41b815260008251612b9f81600285016020870161213f565b9190910160020192915050565b601760f91b815260008251612bc881600185016020870161213f565b9190910160010192915050565b818103818111156108a7576108a7612723565b6e1e33903334b6361e913737b732911f60891b81527f3c636972636c652063783d22313636222063793d2235302220723d2232322220600f8201526739ba3937b5b29e9160c11b602f8201528351600090612c4a81603785016020890161213f565b74111039ba3937b5b296bbb4b23a341e91189811179f60591b6037918401918201527f3c636972636c652063783d22313636222063793d2235302220706174684c656e604c8201527f6774683d2231303030302220723d22323222207374726f6b653d220000000000606c8201528451612ccb81608784016020890161213f565b612d95612d20612d1a6087858501017f22207374726f6b652d6461736861727261793d22313030303022207374726f6b81526d3296b230b9b437b33339b2ba1e9160911b6020820152602e0190565b87612230565b7f22207374726f6b652d6c696e656361703d22726f756e6422207374726f6b652d81527f77696474683d223522207472616e73666f726d3d22726f74617465282d39302960208201527f22207472616e73666f726d2d6f726967696e3d22313636203530222f3e0000006040820152605d0190565b915050612da881631e17b39f60e11b9052565b60040195945050505050565b661e339034b21e9160c91b81528551600090612dd7816007850160208b0161213f565b6d11103334b6361e9111b33333111f60911b6007918401918201526c1e3932b1ba103bb4b23a341e9160991b60158201528651612e1b816022840160208b0161213f565b7f22206865696768743d22313030222066696c6c2d6f7061636974793d222e3033602292909101918201527f222072783d223135222072793d22313522207374726f6b653d2223666666222060428201527f7374726f6b652d6f7061636974793d222e3122207374726f6b652d77696474686062820152651e911a11179f60d11b60828201527f3c7465787420783d2232302220793d2233342220666f6e742d66616d696c793d60888201527f2227436f7572696572204e6577272c417269616c2c6d6f6e6f7370616365222060a8820152703337b73a16b9b4bd329e911919383c111f60791b60c88201526007810190612f189060d901612d1a565b661e17ba32bc3a1f60c91b815290507f3c7465787420783d2232302220793d2237322220666f6e742d66616d696c793d60078201527f2227436f7572696572204e6577272c417269616c2c6d6f6e6f737061636522206027820152703337b73a16b9b4bd329e91191b383c111f60791b6047820152612f9a6058820186612230565b661e17ba32bc3a1f60c91b81529050612fb66007820185612230565b631e17b39f60e11b815260040198975050505050505050565b651e3232b3399f60d11b815260008851612ff0816006850160208d0161213f565b885190830190613007816006840160208d0161213f565b885191016006019061301d818360208c0161213f565b8751910190613030818360208b0161213f565b8651910190613043818360208a0161213f565b855191019061305681836020890161213f565b845191019061306981836020880161213f565b0161307d81661e17b232b3399f60c91b9052565b6007019998505050505050505050565b6000835161309f81846020880161213f565b64010714051160dd1b9083019081526a029b0b13634b2b9102b19160ad1b600582015283516130d581601084016020880161213f565b01601001949350505050565b600083516130f381846020880161213f565b64010714051160dd1b908301908152835161311581600584016020880161213f565b01600501949350505050565b7f3c7465787420746578742d72656e646572696e673d226f7074696d697a65537081526432b2b2111f60d91b602082015260008551613167816025850160208a0161213f565b85519083019061317e816025840160208a0161213f565b855191016025019061319481836020890161213f565b84519101906131a781836020880161213f565b661e17ba32bc3a1f60c91b91019081526007019695505050505050565b7f3c75736520687265663d2223476c6f77222066696c6c2d6f7061636974793d22815264171c91179f60d91b60208201527f3c75736520687265663d2223476c6f772220783d22313030302220793d22313060258201527f3030222066696c6c2d6f7061636974793d222e39222f3e00000000000000000060458201527f3c75736520687265663d22234c6f676f2220783d223137302220793d22313730605c8201527f22207472616e73666f726d3d227363616c65282e3629222f3e3c757365206872607c8201527f65663d2223486f7572676c6173732220783d223135302220793d223930222074609c8201527f72616e73666f726d3d22726f746174652831302922207472616e73666f726d2d60bc8201527137b934b3b4b71e911a9818101a981811179f60711b60dc8201527f3c75736520687265663d222350726f67726573732220783d220000000000000060ee820152600061332a610107830187612230565b6a11103c9e911b9c9811179f60a91b81527f3c75736520687265663d22235374617475732220783d22000000000000000000600b82015261336e6022820187612230565b6a11103c9e911b9c9811179f60a91b815290507f3c75736520687265663d2223416d6f756e742220783d22000000000000000000600b8201526133b46022820186612230565b6a11103c9e911b9c9811179f60a91b815290507f3c75736520687265663d22234475726174696f6e2220783d2200000000000000600b8201526133fa6024820185612230565b6a11103c9e911b9c9811179f60a91b8152600b01979650505050505050565b7f3c72616469616c4772616469656e742069643d2252616469616c476c6f77223e81527f3c73746f70206f66667365743d223025222073746f702d636f6c6f723d22000060208201526000835161347781603e85016020880161213f565b74111039ba37b816b7b830b1b4ba3c9e91171b11179f60591b603e918401918201527f3c73746f70206f66667365743d2231303025222073746f702d636f6c6f723d22605382015283516134d281607384016020880161213f565b73111039ba37b816b7b830b1b4ba3c9e911811179f60611b60739290910191820152701e17b930b234b0b623b930b234b2b73a1f60791b6087820152609801949350505050565b7f3c6c696e6561724772616469656e742069643d2253616e64546f70222078313d81526c11181291103c989e911812911f60991b60208201527f3c73746f70206f66667365743d223025222073746f702d636f6c6f723d220000602d8201526000835161358d81604b85016020880161213f565b6211179f60e91b604b918401918201527f3c73746f70206f66667365743d2231303025222073746f702d636f6c6f723d22604e82015283516135d681606e84016020880161213f565b6211179f60e91b606e9290910191820152701e17b634b732b0b923b930b234b2b73a1f60791b6071820152608201949350505050565b7f3c6c696e6561724772616469656e742069643d2253616e64426f74746f6d22208152733c189e911898181291103c989e9118981812911f60611b60208201527f3c73746f70206f66667365743d22313025222073746f702d636f6c6f723d220060348201526000835161368781605385016020880161213f565b6211179f60e91b6053918401918201527f3c73746f70206f66667365743d2231303025222073746f702d636f6c6f723d22605682015283516136d081607684016020880161213f565b6211179f60e91b910160768101919091527f3c616e696d617465206174747269627574654e616d653d22783122206475723d60798201527f2236732220726570656174436f756e743d22696e646566696e6974652220766160998201527f6c7565733d223330253b3630253b313230253b3630253b3330253b222f3e000060b9820152701e17b634b732b0b923b930b234b2b73a1f60791b60d7820152605301609501949350505050565b7f3c6c696e6561724772616469656e742069643d22486f7572676c61737353747281527f6f6b6522206772616469656e745472616e73666f726d3d22726f74617465283960208201527f302922206772616469656e74556e6974733d227573657253706163654f6e557360408201526232911f60e91b60608201527f3c73746f70206f66667365743d22353025222073746f702d636f6c6f723d220060638201526000835161383181608285016020880161213f565b6211179f60e91b6082918401918201527f3c73746f70206f66667365743d22383025222073746f702d636f6c6f723d22006085820152835161387a8160a484016020880161213f565b0160828101906138929060a4016211179f60e91b9052565b701e17b634b732b0b923b930b234b2b73a1f60791b6025820152603601949350505050565b711e339034b21e912437bab933b630b9b9911f60711b815285516000906138e5816012850160208b0161213f565b8651908301906138fc816012840160208b0161213f565b8651910160120190613912818360208a0161213f565b855191019061392581836020890161213f565b845191019061393881836020880161213f565b631e17b39f60e11b9101908152600401979650505050505050565b7f3c74657874506174682073746172744f66667365743d2200000000000000000081526000835161398b81601785016020880161213f565b7f2220687265663d2223466c6f6174696e6754657874222066696c6c3d222366666017918401918201527f662220666f6e742d66616d696c793d2227436f7572696572204e6577272c417260378201527f69616c2c6d6f6e6f7370616365222066696c6c2d6f7061636974793d222e3822605782015271103337b73a16b9b4bd329e91191b383c111f60711b60778201527f3c616e696d6174652061646469746976653d2273756d2220617474726962757460898201527f654e616d653d2273746172744f66667365742220626567696e3d22307322206460a98201527f75723d22353073222066726f6d3d2230252220726570656174436f756e743d2260c98201527f696e646566696e6974652220746f3d2231303025222f3e00000000000000000060e9820152613ac2610100820185612230565b6a1e17ba32bc3a2830ba341f60a91b8152600b019594505050505056fe3c706174682069643d22466c6f6174696e6754657874222066696c6c3d226e6f6e652220643d224d313235203435683735307338302030203830203830763735307330203830202d3830203830682d373530732d38302030202d3830202d3830762d3735307330202d3830203830202d3830222f3e3c7061746820643d226d3438312e34362c3438312e35347638312e3031632d322e33352e37372d342e38322c312e35312d372e33392c322e32332d33302e332c382e35342d37342e36352c31332e39322d3132342e30362c31332e39322d35332e362c302d3130312e32342d362e33332d3133312e34372d31362e3136762d38316c34362e332d34362e3331683137302e33336c34362e32392c34362e33315a222066696c6c3d2275726c282353616e64426f74746f6d29222f3e3c7061746820643d226d3433352e31372c3433352e323363302c312e31372d2e34362c322e33322d312e33332c332e34342d372e31312c392e30382d34312e39332c31352e39382d38332e38312c31352e3938732d37362e372d362e392d38332e38322d31352e3938632d2e38372d312e31322d312e33332d322e32372d312e33332d332e3434762d2e30346c382e33342d382e33352e30312d2e30316331332e37322d362e35312c34322e39352d31312e30322c37362e382d31312e30327336322e39372c342e34392c37362e37322c31316c382e34322c382e34325a222066696c6c3d2275726c282353616e64546f7029222f3e3c7061746820643d226d3438312e34362c3530342e3130317635382e343439632d322e33352e37372d342e38322c312e35312d372e33392c322e32332d33302e332c382e35342d37342e36352c31332e39322d3132342e30362c31332e39322d35332e362c302d3130312e32342d362e33332d3133312e34372d31362e3136762d35382e343339683236322e39325a222066696c6c3d2275726c282353616e64426f74746f6d29222f3e3c656c6c697073652063783d22333530222063793d223530342e313031222072783d223133312e343632222072793d2232382e313038222066696c6c3d2275726c282353616e64546f7029222f3ee29d95494e464f3a2054686973204e4654206973206e6f6e2d7472616e7366657261626c652e2049742063616e6e6f7420626520736f6c64206f72207472616e7366657272656420746f20616e6f74686572206163636f756e742e3c726563742077696474683d223130302522206865696768743d2231303025222066696c7465723d2275726c28234e6f69736529222f3e3c7265637420783d2237302220793d223730222077696474683d2238363022206865696768743d22383630222066696c6c3d2223666666222066696c6c2d6f7061636974793d222e3033222072783d223435222072793d22343522207374726f6b653d222366666622207374726f6b652d6f7061636974793d222e3122207374726f6b652d77696474683d2234222f3e3c66696c7465722069643d224e6f697365223e3c6665466c6f6f6420783d22302220793d2230222077696474683d223130302522206865696768743d22313030252220666c6f6f642d636f6c6f723d2268736c283233302c3231252c313125292220666c6f6f642d6f7061636974793d22312220726573756c743d22666c6f6f6446696c6c222f3e3c666554757262756c656e636520626173654672657175656e63793d222e3422206e756d4f6374617665733d22332220726573756c743d224e6f6973652220747970653d226672616374616c4e6f697365222f3e3c6665426c656e6420696e3d224e6f6973652220696e323d22666c6f6f6446696c6c22206d6f64653d22736f66742d6c69676874222f3e3c2f66696c7465723e4142434445464748494a4b4c4d4e4f505152535455565758595a6162636465666768696a6b6c6d6e6f707172737475767778797a303132333435363738392b2fe29aa0efb88f205741524e494e473a205472616e7366657272696e6720746865204e4654206d616b657320746865206e6577206f776e65722074686520726563697069656e74206f66207468652073747265616d2e205468652066756e647320617265206e6f74206175746f6d61746963616c6c792077697468647261776e20666f72207468652070726576696f757320726563697069656e742e3c706174682069643d224c6f676f222066696c6c3d2223666666222066696c6c2d6f7061636974793d222e312220643d226d3133332e3535392c3132342e303334632d2e3031332c322e3431322d312e3035392c342e3834382d322e3932332c362e3430322d322e3535382c312e3831392d352e3136382c332e3433392d372e3838382c342e3939362d31342e34342c382e3236322d33312e3034372c31322e3536352d34372e3637342c31322e3536392d382e3835382e3033362d31372e3833382d312e3237322d32362e3332382d332e3636332d392e3830362d322e3736362d31392e3038372d372e3131332d32372e3536322d31322e3737382d31332e3834322d382e3032352c392e3436382d32382e3630362c31362e3135332d33352e323635683063322e3033352d312e3833382c342e3235322d332e3534362c362e3436332d352e323234683063362e3432392d352e3635352c31362e3231382d322e3833352c32302e3335382c342e31372c342e3134332c352e3035372c382e3831362c392e3634392c31332e39322c31332e373334682e30333763352e3733362c362e3436312c31352e3335372d322e3235332c392e33382d382e34382c302c302d332e3531352d332e3531352d332e3531352d332e3531352d31312e34392d31312e3437382d35322e3635362d35322e3636342d36342e3833372d36342e3833376c2e3034392d2e303337632d312e3732352d312e3630362d322e3731392d332e3834372d322e3735312d362e3230346830632d2e3034362d322e3337352c312e3036322d342e3538322c322e3732362d362e32323968306c2e3138352d2e3134386830632e3039392d2e3036322c2e3232322d2e3134382c2e33372d2e323539683063322e30362d312e3336322c332e3935312d322e3632312c362e3034342d332e3834324335372e3736332d332e3437332c39372e37362d322e3334312c3132382e3633372c31382e3333326331362e3637312c392e3934362d32362e3334342c35342e3831332d33382e3635312c34302e3139392d362e3239392d362e3039362d31382e3036332d31372e3734332d31392e3636382d31382e3831312d362e3031362d342e3034372d31332e3036312c342e3737362d372e3735322c392e3735316c36382e3235342c36382e33373163312e3732342c312e3630312c322e3731342c332e38342c322e3733382c362e3139325a222f3e3c672066696c6c3d226e6f6e6522207374726f6b653d2275726c2823486f7572676c6173735374726f6b652922207374726f6b652d6c696e656361703d22726f756e6422207374726f6b652d6d697465726c696d69743d22313022207374726f6b652d77696474683d2234223e3c7061746820643d226d3536352e3634312c3130372e323863302c392e3533372d352e35362c31382e3632392d31352e3637362c32362e393733682d2e303233632d392e3230342c372e3539362d32322e3139342c31342e3536322d33382e3139372c32302e3539322d33392e3530342c31342e3933362d39372e3332352c32342e3335352d3136312e3733332c32342e3335352d39302e34382c302d3136372e3934382d31382e3538322d3139392e3935332d34342e393438682d2e303233632d31302e3131352d382e3334342d31352e3637362d31372e3433372d31352e3637362d32362e3937332c302d33392e3733352c39362e3535342d37312e3932312c3231352e3635322d37312e393231733231352e3632392c33322e3138352c3231352e3632392c37312e3932315a222f3e3c7061746820643d226d3133342e33362c3136312e32303363302c33392e3733352c39362e3535342c37312e3932312c3231352e3635322c37312e393231733231352e3632392d33322e3138362c3231352e3632392d37312e393231222f3e3c6c696e652078313d223133342e3336222079313d223136312e323033222078323d223133342e3336222079323d223130372e3238222f3e3c6c696e652078313d223536352e3634222079313d223136312e323033222078323d223536352e3634222079323d223130372e3238222f3e3c6c696e652078313d223138342e353834222079313d223230362e383233222078323d223138342e353835222079323d223533372e353739222f3e3c6c696e652078313d223231382e313831222079313d223231382e313138222078323d223231382e313831222079323d223536322e353337222f3e3c6c696e652078313d223438312e383138222079313d223231382e313432222078323d223438312e383139222079323d223536322e343238222f3e3c6c696e652078313d223531352e343135222079313d223230372e333532222078323d223531352e343136222079323d223533372e353739222f3e3c7061746820643d226d3138342e35382c3533372e353863302c352e34352c342e32372c31302e36352c31322e30332c31352e3432682e303263352e35312c332e33392c31322e37392c362e35352c32312e35352c392e34322c33302e32312c392e392c37382e30322c31362e32382c3133312e38332c31362e32382c34392e34312c302c39332e37362d352e33382c3132342e30362d31332e39322c322e372d2e37362c352e32392d312e35342c372e37352d322e33352c382e37372d322e38372c31362e30352d362e30342c32312e35362d392e3433683063372e37362d342e37372c31322e30342d392e39372c31322e30342d31352e3432222f3e3c7061746820643d226d3138342e3538322c3439322e363536632d33312e3335342c31322e3438352d35302e3232332c32382e35382d35302e3232332c34362e3134322c302c392e3533362c352e3536342c31382e3632372c31352e3637372c32362e393639682e30323263382e3530332c372e3030352c32302e3231332c31332e3436332c33342e3532342c31392e3135392c392e3939392c332e3939312c32312e3236392c372e3630392c33332e3539372c31302e3738382c33362e34352c392e3430372c38322e3138312c31352e3030322c3133312e3833352c31352e3030327339352e3336332d352e3539352c3133312e3830372d31352e3030326331302e3834372d322e37392c32302e3836372d352e3932362c32392e3932342d392e3334392c312e3234342d2e3436372c322e3437332d2e3934322c332e3637332d312e3432342c31342e3332362d352e3639362c32362e3033352d31322e3136312c33342e3532342d31392e313733682e3032326331302e3131342d382e3334322c31352e3637372d31372e3433332c31352e3637372d32362e3936392c302d31372e3536322d31382e3836392d33332e3636352d35302e3232332d34362e3135222f3e3c7061746820643d226d3133342e33362c3539322e373263302c33392e3733352c39362e3535342c37312e3932312c3231352e3635322c37312e393231733231352e3632392d33322e3138362c3231352e3632392d37312e393231222f3e3c6c696e652078313d223133342e3336222079313d223539322e3732222078323d223133342e3336222079323d223533382e373937222f3e3c6c696e652078313d223536352e3634222079313d223539322e3732222078323d223536352e3634222079323d223533382e373937222f3e3c706f6c796c696e6520706f696e74733d223438312e383232203438312e393031203438312e373938203438312e383737203438312e373735203438312e383534203335302e303135203335302e303236203231382e313835203231382e313239222f3e3c706f6c796c696e6520706f696e74733d223231382e313835203438312e393031203231382e323331203438312e383534203335302e303135203335302e303236203438312e383232203231382e313532222f3e3c2f673e3c636972636c652069643d22476c6f772220723d22353030222066696c6c3d2275726c282352616469616c476c6f7729222f3e3c706f6c79676f6e20706f696e74733d22333530203335302e303236203431352e3033203238342e39373820323835203238342e39373820333530203335302e303236222066696c6c3d2275726c282353616e64426f74746f6d29222f3e3c7061746820643d226d3431362e3334312c3238312e39373563302c2e3931342d2e3335342c312e3830392d312e3033352c322e36382d352e3534322c372e3037362d33322e3636312c31322e34352d36352e32382c31322e34352d33322e3632342c302d35392e3733382d352e3337342d36352e32382d31322e34352d2e3638312d2e3837322d312e3033352d312e3736372d312e3033352d322e36382c302d2e3931342e3335342d312e3830382c312e3033352d322e3637362c352e3534322d372e3037362c33322e3635362d31322e34352c36352e32382d31322e34352c33322e3631392c302c35392e3733382c352e3337342c36352e32382c31322e34352e3638312e3836372c312e3033352c312e3736322c312e3033352c322e3637365a222066696c6c3d2275726c282353616e64546f7029222f3e3c7061746820643d226d3536362c3136312e323031762d35332e39323463302d31392e3338322d32322e3531332d33372e3536332d36332e3339382d35312e3139382d34302e3735362d31332e3539322d39342e3934362d32312e3037392d3135322e3538372d32312e303739732d3131312e3833382c372e3438372d3135322e3630322c32312e303739632d34302e3839332c31332e3633362d36332e3431332c33312e3831362d36332e3431332c35312e3139387635332e39323463302c31372e3138312c31372e3730342c33332e3432372c35302e3232332c34362e333934763238342e383039632d33322e3531392c31322e39362d35302e3232332c32392e3230362d35302e3232332c34362e3339347635332e39323463302c31392e3338322c32322e35322c33372e3536332c36332e3431332c35312e3139382c34302e3736332c31332e3539322c39342e3935342c32312e3037392c3135322e3630322c32312e303739733131312e3833312d372e3438372c3135322e3538372d32312e3037396334302e3838362d31332e3633362c36332e3339382d33312e3831362c36332e3339382d35312e313938762d35332e39323463302d31372e3139362d31372e3730342d33332e3433352d35302e3232332d34362e343031563230372e3630336333322e3531392d31322e3936372c35302e3232332d32392e3230362c35302e3232332d34362e3430315a6d2d3334372e3436322c35372e3739336c3133302e3935392c3133312e3032372d3133302e3935392c3133312e303133563231382e3939345a6d3236322e3932342e303232763236322e3031386c2d3133302e3933372d3133312e3030362c3133302e3933372d3133312e3031335a222066696c6c3d2223313631383232223e3c2f706174683e3c7061746820643d224d2035302c3336302061203330302c333030203020312c31203630302c302061203330302c333030203020312c31202d3630302c30222066696c6c3d2223666666222066696c6c2d6f7061636974793d222e303222207374726f6b653d2275726c2823486f7572676c6173735374726f6b652922207374726f6b652d77696474683d2234222f3ea2646970667358221220a0976482d66453b38406aabd4f7d1c4aebaed9d131abc5dd2a852e8047d6846764736f6c634300081b003360a060405234801561001057600080fd5b5060405161485538038061485583398101604081905261002f9161012f565b604080518082018252601c81527f5361626c696572205632204c6f636b7570204c696e656172204e4654000000006020808301919091528251808401909352601183527029a0a116ab1916a627a1a5aaa816a624a760791b9083015230608052839183919060016100a08382610208565b5060026100ad8282610208565b5050600080546001600160a01b03199081166001600160a01b03868116918217845560088054909316908616179091556040519092507fbdd36143ee09de60bdefca70680e0f71189b2ed7acee364b53917ad433fdaf80908290a350506001600755506102c69050565b6001600160a01b038116811461012c57600080fd5b50565b6000806040838503121561014257600080fd5b825161014d81610117565b602084015190925061015e81610117565b809150509250929050565b634e487b7160e01b600052604160045260246000fd5b600181811c9082168061019357607f821691505b6020821081036101b357634e487b7160e01b600052602260045260246000fd5b50919050565b601f82111561020357806000526020600020601f840160051c810160208510156101e05750805b601f840160051c820191505b8181101561020057600081556001016101ec565b50505b505050565b81516001600160401b0381111561022157610221610169565b6102358161022f845461017f565b846101b9565b6020601f82116001811461026957600083156102515750848201515b600019600385901b1c1916600184901b178455610200565b600084815260208120601f198516915b828110156102995787850151825560209485019460019092019101610279565b50848210156102b75786840151600019600387901b60f8161c191681555b50505050600190811b01905550565b6080516145746102e1600039600061248201526145746000f3fe608060405234801561001057600080fd5b50600436106103275760003560e01c80637cad6cd1116101b8578063b8a3be6611610104578063d975dfed116100a2578063eac8f5b81161007c578063eac8f5b81461076a578063f590c1761461077d578063f851a44014610790578063fdd46d60146107a357600080fd5b8063d975dfed14610731578063e985e9c514610744578063ea5ead191461075757600080fd5b8063c156a11d116100de578063c156a11d146106e5578063c87b56dd146106f8578063d4dbd20b1461070b578063d511609f1461071e57600080fd5b8063b8a3be6614610692578063b971302a146106bf578063bc2be1be146106d257600080fd5b806395d89b4111610171578063ab167ccc1161014b578063ab167ccc14610639578063ad35efd41461064c578063b25645691461066c578063b88d4fde1461067f57600080fd5b806395d89b411461060b578063a22cb46514610613578063a80fc0711461062657600080fd5b80637cad6cd11461058c5780637de6b1db1461059f5780638659c270146105b2578063894e9a0d146105c55780638f69b993146105e55780639067b677146105f857600080fd5b806342842e0e1161027757806353b15727116102305780636d0cee751161020a5780636d0cee751461052a57806370a082311461053d57806375829def14610550578063780a82c81461056357600080fd5b806353b15727146104f757806357404b121461050a5780636352211e1461052a57600080fd5b806342842e0e1461048557806342966c681461049857806344267570146104ab5780634857501f146104be5780634869e12d146104d15780634cc55e11146104e457600080fd5b80631c1cdd4c116102e4578063303acc85116102be578063303acc8514610420578063406887cb1461044c57806340e58ee51461045f578063425d30dd1461047257600080fd5b80631c1cdd4c146103f15780631e99d5691461040457806323b872dd1461040d57600080fd5b806301ffc9a71461032c578063027b67441461035457806306fdde0314610371578063081812fc14610386578063095ea7b3146103b15780631400ecec146103c6575b600080fd5b61033f61033a366004613a51565b6107b6565b60405190151581526020015b60405180910390f35b61036367016345785d8a000081565b60405190815260200161034b565b6103796107e1565b60405161034b9190613abe565b610399610394366004613ad1565b610873565b6040516001600160a01b03909116815260200161034b565b6103c46103bf366004613b0a565b61089c565b005b6103d96103d4366004613ad1565b6108ab565b6040516001600160801b03909116815260200161034b565b61033f6103ff366004613ad1565b610967565b61036360075481565b6103c461041b366004613b36565b6109eb565b61033f61042e366004613b77565b6001600160a01b031660009081526009602052604090205460ff1690565b6103c461045a366004613b77565b610a76565b6103c461046d366004613ad1565b610be3565b61033f610480366004613ad1565b610ce8565b6103c4610493366004613b36565b610d46565b6103c46104a6366004613ad1565b610d66565b600854610399906001600160a01b031681565b61033f6104cc366004613ad1565b610e1f565b6103d96104df366004613ad1565b610e9b565b6103c46104f2366004613be0565b610ee1565b610363610505366004613c51565b610f95565b61051d610518366004613ad1565b610fb6565b60405161034b9190613c6d565b610399610538366004613ad1565b611064565b61036361054b366004613b77565b61106f565b6103c461055e366004613b77565b6110b7565b610576610571366004613ad1565b611142565b60405164ffffffffff909116815260200161034b565b6103c461059a366004613b77565b61119a565b6103c46105ad366004613ad1565b611286565b6103c46105c0366004613ca7565b611411565b6105d86105d3366004613ad1565b61144e565b60405161034b9190613ce9565b61033f6105f3366004613ad1565b61170b565b610576610606366004613ad1565b611793565b6103796117f2565b6103c4610621366004613e45565b611801565b6103d9610634366004613ad1565b61180c565b610363610647366004613e7e565b611869565b61065f61065a366004613ad1565b6119ce565b60405161034b9190613ea8565b61033f61067a366004613ad1565b611a14565b6103c461068d366004613f69565b611a72565b61033f6106a0366004613ad1565b6000908152600a6020526040902060010154600160a81b900460ff1690565b6103996106cd366004613ad1565b611a8a565b6105766106e0366004613ad1565b611ae4565b6103d96106f3366004614018565b611b43565b610379610706366004613ad1565b611c01565b6103d9610719366004613ad1565b611c84565b6103d961072c366004613ad1565b611ce1565b6103d961073f366004613ad1565b611d45565b61033f61075236600461403d565b611d8b565b6103d9610765366004614018565b611db9565b610399610778366004613ad1565b611dd1565b61033f61078b366004613ad1565b611e2e565b600054610399906001600160a01b031681565b6103c46107b1366004614082565b611e89565b6000632483248360e11b6001600160e01b0319831614806107db57506107db8261215b565b92915050565b6060600180546107f0906140c0565b80601f016020809104026020016040519081016040528092919081815260200182805461081c906140c0565b80156108695780601f1061083e57610100808354040283529160200191610869565b820191906000526020600020905b81548152906001019060200180831161084c57829003601f168201915b5050505050905090565b600061087e826121ab565b506000828152600560205260409020546001600160a01b03166107db565b6108a78282336121e3565b5050565b6000818152600a60205260408120600101548290600160a81b900460ff166108ed5760405162b8e7e760e51b8152600481018290526024015b60405180910390fd5b6000838152600a6020526040902054600160f01b900460ff16801561092b57506000838152600a6020526040902060010154600160a01b900460ff16155b1561096157610939836121f0565b6000848152600a602052604090206002015461095e91906001600160801b031661410a565b91505b50919050565b6000818152600a60205260408120600101548290600160a81b900460ff166109a45760405162b8e7e760e51b8152600481018290526024016108e4565b60006109af84612309565b905060008160048111156109c5576109c5613e92565b14806109e3575060015b8160048111156109e1576109e1613e92565b145b949350505050565b6001600160a01b038216610a1557604051633250574960e11b8152600060048201526024016108e4565b6000610a228383336123cc565b9050836001600160a01b0316816001600160a01b031614610a70576040516364283d7b60e01b81526001600160a01b03808616600483015260248201849052821660448201526064016108e4565b50505050565b6000546001600160a01b03163314610ab6576000546040516331b339a960e21b81526001600160a01b0390911660048201523360248201526044016108e4565b806001600160a01b03163b600003610aec57604051635a2b2d8360e01b81526001600160a01b03821660048201526024016108e4565b6040516301ffc9a760e01b815263f8ee98d360e01b60048201819052906001600160a01b038316906301ffc9a790602401602060405180830381865afa158015610b3a573d6000803e3d6000fd5b505050506040513d601f19601f82011682018060405250810190610b5e9190614129565b610b8657604051633fdc21f560e11b81526001600160a01b03831660048201526024016108e4565b6001600160a01b038216600081815260096020908152604091829020805460ff19166001179055905191825233917fb4378d4e289cb3f40f4f75a99c9cafa76e3df1c4dc31309babc23dc91bd72801910160405180910390a25050565b610beb612477565b6000818152600a60205260409020600101548190600160a81b900460ff16610c285760405162b8e7e760e51b8152600481018290526024016108e4565b6000828152600a6020526040902060010154600160a01b900460ff1615610c6557604051634a5541ef60e01b8152600481018390526024016108e4565b6000828152600a6020526040902054600160f81b900460ff1615610c9f5760405163fe19f19f60e01b8152600481018390526024016108e4565b6000828152600a60205260409020546001600160a01b03163314610cdf5760405163216caf0d60e01b8152600481018390523360248201526044016108e4565b6108a7826124c2565b6000818152600a60205260408120600101548290600160a81b900460ff16610d255760405162b8e7e760e51b8152600481018290526024016108e4565b50506000908152600a6020526040902060010154600160a01b900460ff1690565b610d6183838360405180602001604052806000815250611a72565b505050565b610d6e612477565b6000818152600a60205260409020600101548190600160a81b900460ff16610dab5760405162b8e7e760e51b8152600481018290526024016108e4565b6000828152600a6020526040902060010154600160a01b900460ff16610de75760405163817cd63960e01b8152600481018390526024016108e4565b610df0826127f3565b610e165760405163216caf0d60e01b8152600481018390523360248201526044016108e4565b6108a78261283e565b6000818152600a60205260408120600101548290600160a81b900460ff16610e5c5760405162b8e7e760e51b8152600481018290526024016108e4565b6002610e6784612309565b6004811115610e7857610e78613e92565b146109615750506000908152600a6020526040902054600160f01b900460ff1690565b6000818152600a60205260408120600101548290600160a81b900460ff16610ed85760405162b8e7e760e51b8152600481018290526024016108e4565b61095e83612879565b610ee9612477565b8281808214610f15576040516302bb24d160e61b815260048101839052602481018290526044016108e4565b60005b82811015610f8c57610f84878783818110610f3557610f35614146565b90506020020135610f5d898985818110610f5157610f51614146565b9050602002013561291d565b878785818110610f6f57610f6f614146565b90506020020160208101906107b1919061415c565b600101610f18565b50505050505050565b6000610f9f612477565b6107db610fb136849003840184614254565b612938565b60408051606081018252600080825260208201819052918101919091526000828152600a60205260409020600101548290600160a81b900460ff166110105760405162b8e7e760e51b8152600481018290526024016108e4565b5050604080516060810182526000838152600a60208181528483205464ffffffffff600160a01b820481168652878552600b8352868520548116838701529690935252600160c81b90049092169082015290565b60006107db826121ab565b60006001600160a01b03821661109b576040516322718ad960e21b8152600060048201526024016108e4565b506001600160a01b031660009081526004602052604090205490565b6000546001600160a01b031633146110f7576000546040516331b339a960e21b81526001600160a01b0390911660048201523360248201526044016108e4565b600080546001600160a01b0319166001600160a01b0383169081178255604051909133917fbdd36143ee09de60bdefca70680e0f71189b2ed7acee364b53917ad433fdaf809190a350565b6000818152600a60205260408120600101548290600160a81b900460ff1661117f5760405162b8e7e760e51b8152600481018290526024016108e4565b50506000908152600b602052604090205464ffffffffff1690565b6000546001600160a01b031633146111da576000546040516331b339a960e21b81526001600160a01b0390911660048201523360248201526044016108e4565b600880546001600160a01b038381166001600160a01b0319831681179093556040805191909216808252602082019390935233917fa2548bd4b805e907c1558a47b5858324fe8bb4a2e1ddfca647eecbf65610eebc910160405180910390a27f6bd5c950a8d8df17f772f5af37cb3655737899cbf903264b9795592da439661c60018060075461126a91906142fd565b6040805192835260208301919091520160405180910390a15050565b61128e612477565b6000818152600a60205260409020600101548190600160a81b900460ff166112cb5760405162b8e7e760e51b8152600481018290526024016108e4565b60006112d683612309565b905060048160048111156112ec576112ec613e92565b0361130d57604051634a5541ef60e01b8152600481018490526024016108e4565b600381600481111561132157611321613e92565b036113425760405163fe19f19f60e01b8152600481018490526024016108e4565b600281600481111561135657611356613e92565b03611377576040516322cad1af60e11b8152600481018490526024016108e4565b6000838152600a60205260409020546001600160a01b031633146113b75760405163216caf0d60e01b8152600481018490523360248201526044016108e4565b6113c083612d8d565b60405183907f0eb069207093cd3e51cd1370d2d369770057fbe29947e577e5fb428c6c6fc78f90600090a260405183815260008051602061451f8339815191529060200160405180910390a1505050565b611419612477565b8060005b81811015610a705761144684848381811061143a5761143a614146565b90506020020135610be3565b60010161141d565b6114cb60408051610180810182526000808252602080830182905282840182905260608084018390526080840183905260a0840183905260c0840183905260e08401839052610100840183905261012084018390528451908101855282815290810182905292830152906101408201908152600060209091015290565b6000828152600a60205260409020600101548290600160a81b900460ff166115085760405162b8e7e760e51b8152600481018290526024016108e4565b6000838152600a602090815260409182902082516101408101845281546001600160a01b03808216835264ffffffffff600160a01b808404821685880152600160c81b84049091168488015260ff600160f01b840481161515606080870191909152600160f81b909404811615156080860152600186015492831660a08601529082048116151560c0850152600160a81b82048116151560e0850152600160b01b909104161515610100830152845190810185526002808401546001600160801b038082168452600160801b9091048116958301959095526003909301549093169383019390935261012083019190915261160285612309565b600481111561161357611613613e92565b0361162057600060608201525b60405180610180016040528082600001516001600160a01b031681526020016116488661291d565b6001600160a01b03168152602001826020015164ffffffffff1681526020018260600151151581526020018260800151151581526020018260a001516001600160a01b03168152602001826040015164ffffffffff1681526020018260c00151151581526020018260e0015115158152602001826101000151151581526020018261012001518152602001600b600087815260200190815260200160002060009054906101000a900464ffffffffff1664ffffffffff1681525092505050919050565b6000818152600a60205260408120600101548290600160a81b900460ff166117485760405162b8e7e760e51b8152600481018290526024016108e4565b600061175384612309565b9050600281600481111561176957611769613e92565b14806117865750600381600481111561178457611784613e92565b145b806109e3575060046109cf565b6000818152600a60205260408120600101548290600160a81b900460ff166117d05760405162b8e7e760e51b8152600481018290526024016108e4565b50506000908152600a6020526040902054600160c81b900464ffffffffff1690565b6060600280546107f0906140c0565b6108a7338383612de1565b6000818152600a60205260408120600101548290600160a81b900460ff166118495760405162b8e7e760e51b8152600481018290526024016108e4565b50506000908152600a60205260409020600201546001600160801b031690565b6000611873612477565b604080516060810182526000602082018190529181018290524264ffffffffff168152906118a760e0850160c08601614310565b64ffffffffff1611156118d4576118c460e0840160c08501614310565b81510164ffffffffff1660208201525b6118e5610100840160e08501614310565b81510164ffffffffff166040808301919091528051610100810190915261095e90806119146020870187613b77565b6001600160a01b031681526020018560200160208101906119359190613b77565b6001600160a01b03168152602001611953606087016040880161415c565b6001600160801b031681526020016119716080870160608801613b77565b6001600160a01b0316815260200161198f60a087016080880161432b565b151581526020016119a660c0870160a0880161432b565b15158152602081018490526040016119c73687900387016101008801614348565b9052612938565b6000818152600a60205260408120600101548290600160a81b900460ff16611a0b5760405162b8e7e760e51b8152600481018290526024016108e4565b61095e83612309565b6000818152600a60205260408120600101548290600160a81b900460ff16611a515760405162b8e7e760e51b8152600481018290526024016108e4565b50506000908152600a6020526040902060010154600160b01b900460ff1690565b611a7d8484846109eb565b610a703385858585612e80565b6000818152600a60205260408120600101548290600160a81b900460ff16611ac75760405162b8e7e760e51b8152600481018290526024016108e4565b50506000908152600a60205260409020546001600160a01b031690565b6000818152600a60205260408120600101548290600160a81b900460ff16611b215760405162b8e7e760e51b8152600481018290526024016108e4565b50506000908152600a6020526040902054600160a01b900464ffffffffff1690565b6000611b4d612477565b6000838152600a60205260409020600101548390600160a81b900460ff16611b8a5760405162b8e7e760e51b8152600481018290526024016108e4565b6000611b958561291d565b9050336001600160a01b03821614611bc95760405163216caf0d60e01b8152600481018690523360248201526044016108e4565b611bd285612fa9565b92506001600160801b03831615611bee57611bee858285611e89565b611bf9818587612fde565b505092915050565b6060611c0c826121ab565b5060085460405163e9dc637560e01b8152306004820152602481018490526001600160a01b039091169063e9dc637590604401600060405180830381865afa158015611c5c573d6000803e3d6000fd5b505050506040513d6000823e601f3d908101601f191682016040526107db9190810190614364565b6000818152600a60205260408120600101548290600160a81b900460ff16611cc15760405162b8e7e760e51b8152600481018290526024016108e4565b50506000908152600a60205260409020600301546001600160801b031690565b6000818152600a60205260408120600101548290600160a81b900460ff16611d1e5760405162b8e7e760e51b8152600481018290526024016108e4565b50506000908152600a6020526040902060020154600160801b90046001600160801b031690565b6000818152600a60205260408120600101548290600160a81b900460ff16611d825760405162b8e7e760e51b8152600481018290526024016108e4565b61095e83612fa9565b6001600160a01b03918216600090815260066020908152604080832093909416825291909152205460ff1690565b6000611dc483612fa9565b90506107db838383611e89565b6000818152600a60205260408120600101548290600160a81b900460ff16611e0e5760405162b8e7e760e51b8152600481018290526024016108e4565b50506000908152600a60205260409020600101546001600160a01b031690565b6000818152600a60205260408120600101548290600160a81b900460ff16611e6b5760405162b8e7e760e51b8152600481018290526024016108e4565b50506000908152600a6020526040902054600160f81b900460ff1690565b611e91612477565b6000838152600a60205260409020600101548390600160a81b900460ff16611ece5760405162b8e7e760e51b8152600481018290526024016108e4565b6000848152600a6020526040902060010154600160a01b900460ff1615611f0b57604051634a5541ef60e01b8152600481018590526024016108e4565b6001600160a01b038316611f3557604051630ff7ee2d60e31b8152600481018590526024016108e4565b816001600160801b0316600003611f625760405163d2aabcd960e01b8152600481018590526024016108e4565b6000611f6d8561291d565b9050806001600160a01b0316846001600160a01b031614158015611f975750611f95856127f3565b155b15611fcd5760405163b34359d360e01b8152600481018690523360248201526001600160a01b03851660448201526064016108e4565b6000611fd886612fa9565b9050806001600160801b0316846001600160801b031611156120275760405163287ecaef60e21b8152600481018790526001600160801b038086166024830152821660448201526064016108e4565b61203286868661308e565b60405186815260008051602061451f8339815191529060200160405180910390a1336001600160a01b0383161480159061208457506001600160a01b03821660009081526009602052604090205460ff165b15612153576040516392b9102b60e01b8152600481018790523360248201526001600160a01b0386811660448301526001600160801b0386166064830152600091908416906392b9102b906084016020604051808303816000875af11580156120f1573d6000803e3d6000fd5b505050506040513d601f19601f8201168201806040525081019061211591906143db565b90506001600160e01b031981166392b9102b60e01b14610f8c57604051632187e5e760e21b81526001600160a01b03841660048201526024016108e4565b505050505050565b60006001600160e01b031982166380ac58cd60e01b148061218c57506001600160e01b03198216635b5e139f60e01b145b806107db57506301ffc9a760e01b6001600160e01b03198316146107db565b6000806121b78361291d565b90506001600160a01b0381166107db57604051637e27328960e01b8152600481018490526024016108e4565b610d6183838360016131f3565b6000818152600b6020908152604080832054600a90925282205464ffffffffff91821691600160a01b90910416428083118061222c5750808210155b1561223c57506000949350505050565b6000858152600a6020526040902054600160c81b900464ffffffffff168082106122835750505060009283525050600a60205260409020600201546001600160801b031690565b828203838203600061229583836132f9565b60008a8152600a60205260408120600201549192506001600160801b03909116906122c08383613314565b9050808210156122fb5750505060009788525050600a6020525050604090932060020154600160801b90046001600160801b03169392505050565b9a9950505050505050505050565b6000818152600a6020526040812060010154600160a01b900460ff161561233257506004919050565b6000828152600a6020526040902054600160f81b900460ff161561235857506003919050565b6000828152600a6020526040902054600160a01b900464ffffffffff1642101561238457506000919050565b6000828152600a60205260409020600201546001600160801b03166123a8836121f0565b6001600160801b031610156123bf57506001919050565b506002919050565b919050565b6000806123d88461291d565b90506001600160a01b038116158015906123fa57506001600160a01b03851615155b801561241f57506000848152600a6020526040902060010154600160b01b900460ff16155b1561244057604051630da9b01360e01b8152600481018590526024016108e4565b60405184815260008051602061451f8339815191529060200160405180910390a161246c858585613323565b9150505b9392505050565b306001600160a01b037f000000000000000000000000000000000000000000000000000000000000000016146124c05760405163a1c0d6e560e01b815260040160405180910390fd5b565b60006124cd826121f0565b6000838152600a6020908152604091829020825160608101845260028201546001600160801b03808216808452600160801b909204811694830194909452600390920154831693810193909352929350909190831610612543576040516322cad1af60e11b8152600481018490526024016108e4565b6000838152600a6020526040902054600160f01b900460ff1661257c576040516339c6dc7360e21b8152600481018490526024016108e4565b805160208201519083900390600090612595908561410a565b6000868152600a6020526040812080546001600160f01b0316600160f81b1790559091506001600160801b03821690036125ec576000858152600a60205260409020600101805460ff60a01b1916600160a01b1790555b6000858152600a602052604081206003810180546fffffffffffffffffffffffffffffffff19166001600160801b038616179055546001600160a01b0316906126348761291d565b6000888152600a60205260409020600101549091506001600160a01b031661266681846001600160801b038816613417565b806001600160a01b0316826001600160a01b0316846001600160a01b03167f5edb27d6c1a327513b90a792050debf074b7194444885e3144d4decc5caaaa508b89896040516126d1939291909283526001600160801b03918216602084015216604082015260600190565b60405180910390a460405188815260008051602061451f8339815191529060200160405180910390a16001600160a01b03821660009081526009602052604090205460ff16156127e957604051630d4af11f60e31b8152600481018990526001600160a01b0384811660248301526001600160801b0380881660448401528616606483015260009190841690636a5788f8906084016020604051808303816000875af1158015612785573d6000803e3d6000fd5b505050506040513d601f19601f820116820180604052508101906127a991906143db565b90506001600160e01b03198116630d4af11f60e31b146127e757604051632187e5e760e21b81526001600160a01b03841660048201526024016108e4565b505b5050505050505050565b6000806127ff8361291d565b9050336001600160a01b038216148061281d575061281d8133611d8b565b8061095e57503361282d84610873565b6001600160a01b0316149392505050565b600061284d60008360006123cc565b90506001600160a01b0381166108a757604051637e27328960e01b8152600481018390526024016108e4565b6000818152600a60208181526040808420815160608101835260028201546001600160801b038082168352600160801b9091048116828601526003830154169281019290925285855292909152600190910154600160a01b900460ff16156128e5576020015192915050565b6000838152600a6020526040902054600160f81b900460ff1615612914576040810151815161095e919061410a565b61095e836121f0565b6000908152600360205260409020546001600160a01b031690565b60008061295a83604001518460e001516020015167016345785d8a0000613476565b905061296e81600001518460c00151613539565b600754915060405180610140016040528084600001516001600160a01b031681526020018460c001516000015164ffffffffff1681526020018460c001516040015164ffffffffff16815260200184608001511515815260200160001515815260200184606001516001600160a01b031681526020016000151581526020016001151581526020018460a0015115158152602001604051806060016040528084600001516001600160801b0316815260200160006001600160801b0316815260200160006001600160801b0316815250815250600a600084815260200190815260200160002060008201518160000160006101000a8154816001600160a01b0302191690836001600160a01b0316021790555060208201518160000160146101000a81548164ffffffffff021916908364ffffffffff16021790555060408201518160000160196101000a81548164ffffffffff021916908364ffffffffff160217905550606082015181600001601e6101000a81548160ff021916908315150217905550608082015181600001601f6101000a81548160ff02191690831515021790555060a08201518160010160006101000a8154816001600160a01b0302191690836001600160a01b0316021790555060c08201518160010160146101000a81548160ff02191690831515021790555060e08201518160010160156101000a81548160ff0219169083151502179055506101008201518160010160166101000a81548160ff0219169083151502179055506101208201518160020160008201518160000160006101000a8154816001600160801b0302191690836001600160801b0316021790555060208201518160000160106101000a8154816001600160801b0302191690836001600160801b0316021790555060408201518160010160006101000a8154816001600160801b0302191690836001600160801b03160217905550505090505060008360c001516020015164ffffffffff161115612c835760c08301516020908101516000848152600b9092526040909120805464ffffffffff191664ffffffffff9092169190911790555b600182016007556020830151612c9990836136d8565b80516060840151612cc2916001600160a01b0390911690339030906001600160801b031661373d565b60208101516001600160801b031615612d065760e08301515160208201516060850151612d06926001600160a01b03909116913391906001600160801b031661373d565b82606001516001600160a01b031683602001516001600160a01b031684600001516001600160a01b03167f44cb432df42caa86b7ec73644ab8aec922bc44c71c98fc330addc75b88adbc7c85338689608001518a60a001518b60c001518c60e0015160000151604051612d7f97969594939291906143f8565b60405180910390a450919050565b6000818152600a6020526040902054600160f01b900460ff16612dc6576040516339c6dc7360e21b8152600481018290526024016108e4565b6000908152600a60205260409020805460ff60f01b19169055565b6001600160a01b038216612e1357604051630b61174360e31b81526001600160a01b03831660048201526024016108e4565b6001600160a01b03838116600081815260066020908152604080832094871680845294825291829020805460ff191686151590811790915591519182527f17307eab39ab6107e8899845ad3d59bd9653f200f220920489ca2b5937696c31910160405180910390a3505050565b6001600160a01b0383163b15612fa257604051630a85bd0160e11b81526001600160a01b0384169063150b7a0290612ec2908890889087908790600401614496565b6020604051808303816000875af1925050508015612efd575060408051601f3d908101601f19168201909252612efa918101906143db565b60015b612f66573d808015612f2b576040519150601f19603f3d011682016040523d82523d6000602084013e612f30565b606091505b508051600003612f5e57604051633250574960e11b81526001600160a01b03851660048201526024016108e4565b805181602001fd5b6001600160e01b03198116630a85bd0160e11b1461215357604051633250574960e11b81526001600160a01b03851660048201526024016108e4565b5050505050565b6000818152600a6020526040812060020154600160801b90046001600160801b0316612fd483612879565b6107db919061410a565b6001600160a01b03821661300857604051633250574960e11b8152600060048201526024016108e4565b6000613016838360006123cc565b90506001600160a01b03811661304257604051637e27328960e01b8152600481018390526024016108e4565b836001600160a01b0316816001600160a01b031614610a70576040516364283d7b60e01b81526001600160a01b03808616600483015260248201849052821660448201526064016108e4565b6000838152600a60205260409020600201546130bb908290600160801b90046001600160801b03166144d3565b6000848152600a60209081526040918290206002810180546001600160801b03958616600160801b90810291871682811793849055865160608101885292881617808352920486169381019390935260039091015490931691810182905291613124919061410a565b6001600160801b031681602001516001600160801b03161061316f576000848152600a6020526040902060018101805460ff60a01b1916600160a01b179055805460ff60f01b191690555b6000848152600a60205260409020600101546001600160a01b031661319e81856001600160801b038616613417565b6040516001600160801b03841681526001600160a01b03808316919086169087907f40b88e5c41c5a97ffb7b6ef88a0a2d505aa0c634cf8a0275cb236ea7dd87ed4d9060200160405180910390a45050505050565b808061320757506001600160a01b03821615155b156132c9576000613217846121ab565b90506001600160a01b038316158015906132435750826001600160a01b0316816001600160a01b031614155b801561325657506132548184611d8b565b155b1561327f5760405163a9fbf51f60e01b81526001600160a01b03841660048201526024016108e4565b81156132c75783856001600160a01b0316826001600160a01b03167f8c5be1e5ebec7d5bd14f71427d1e84f3dd0314c0f7b2291e5b200ac8c7c3b92560405160405180910390a45b505b5050600090815260056020526040902080546001600160a01b0319166001600160a01b0392909216919091179055565b600061247061331184670de0b6b3a764000085613776565b90565b6000612470613311848461384a565b60008061332f8461291d565b90506001600160a01b0383161561334b5761334b818486613900565b6001600160a01b03811615613389576133686000856000806131f3565b6001600160a01b038116600090815260046020526040902080546000190190555b6001600160a01b038516156133b8576001600160a01b0385166000908152600460205260409020805460010190555b60008481526003602052604080822080546001600160a01b0319166001600160a01b0389811691821790925591518793918516917fddf252ad1be2c89b69c2b068fc378daa952ba7f163c4a11628f55a4df523b3ef91a4949350505050565b6040516001600160a01b03838116602483015260448201839052610d6191859182169063a9059cbb906064015b604051602081830303815290604052915060e01b6020820180516001600160e01b038381831617835250505050613964565b6040805180820190915260008082526020820152836001600160801b03166000036134b557506040805180820190915260008082526020820152612470565b828210156134e0576040516327f52e0d60e11b815260048101849052602481018390526044016108e4565b6134f66133116001600160801b03861685613314565b6001600160801b039081166020830181905290851611613518576135186144f2565b6020810151613527908561410a565b6001600160801b031681529392505050565b816001600160801b03166000036135635760405163182574ef60e21b815260040160405180910390fd5b805164ffffffffff1660000361358c5760405163d572dbcb60e01b815260040160405180910390fd5b602081015164ffffffffff161561363c57806020015164ffffffffff16816000015164ffffffffff16106135eb57805160208201516040516359cc18f560e11b815264ffffffffff9283166004820152911660248201526044016108e4565b806040015164ffffffffff16816020015164ffffffffff161061363c5760208101516040808301519051639fee269160e01b815264ffffffffff9283166004820152911660248201526044016108e4565b806040015164ffffffffff16816000015164ffffffffff161061368a5780516040808301519051631415fc2160e21b815264ffffffffff9283166004820152911660248201526044016108e4565b6000429050816040015164ffffffffff168164ffffffffff1610610d61576040808301519051631085760760e11b815264ffffffffff808416600483015290911660248201526044016108e4565b6001600160a01b03821661370257604051633250574960e11b8152600060048201526024016108e4565b6000613710838360006123cc565b90506001600160a01b03811615610d61576040516339e3563760e11b8152600060048201526024016108e4565b6040516001600160a01b038481166024830152838116604483015260648201839052610a709186918216906323b872dd90608401613444565b60008080600019858709858702925082811083820303915050806000036137b0578382816137a6576137a6614508565b0492505050612470565b8381106137e157604051630c740aef60e31b81526004810187905260248101869052604481018590526064016108e4565b60008486880960026001871981018816978890046003810283188082028403028082028403028082028403028082028403028082028403029081029092039091026000889003889004909101858311909403939093029303949094049190911702949350505050565b600080806000198486098486029250828110838203039150508060000361387e5750670de0b6b3a7640000900490506107db565b670de0b6b3a764000081106138b057604051635173648d60e01b815260048101869052602481018590526044016108e4565b6000670de0b6b3a764000085870962040000818503049310909103600160ee1b02919091177faccb18165bd6fe31ae1cf318dc5b51eee0e1ba569b88cd74c1773b91fac106690291505092915050565b61390b8383836139d5565b610d61576001600160a01b03831661393957604051637e27328960e01b8152600481018290526024016108e4565b60405163177e802f60e01b81526001600160a01b0383166004820152602481018290526044016108e4565b600080602060008451602086016000885af180613987576040513d6000823e3d81fd5b50506000513d9150811561399f5780600114156139ac565b6001600160a01b0384163b155b15610a7057604051635274afe760e01b81526001600160a01b03851660048201526024016108e4565b60006001600160a01b038316158015906109e35750826001600160a01b0316846001600160a01b03161480613a0f5750613a0f8484611d8b565b806109e35750506000908152600560205260409020546001600160a01b03908116911614919050565b6001600160e01b031981168114613a4e57600080fd5b50565b600060208284031215613a6357600080fd5b813561247081613a38565b60005b83811015613a89578181015183820152602001613a71565b50506000910152565b60008151808452613aaa816020860160208601613a6e565b601f01601f19169290920160200192915050565b6020815260006124706020830184613a92565b600060208284031215613ae357600080fd5b5035919050565b6001600160a01b0381168114613a4e57600080fd5b80356123c781613aea565b60008060408385031215613b1d57600080fd5b8235613b2881613aea565b946020939093013593505050565b600080600060608486031215613b4b57600080fd5b8335613b5681613aea565b92506020840135613b6681613aea565b929592945050506040919091013590565b600060208284031215613b8957600080fd5b813561247081613aea565b60008083601f840112613ba657600080fd5b50813567ffffffffffffffff811115613bbe57600080fd5b6020830191508360208260051b8501011115613bd957600080fd5b9250929050565b60008060008060408587031215613bf657600080fd5b843567ffffffffffffffff811115613c0d57600080fd5b613c1987828801613b94565b909550935050602085013567ffffffffffffffff811115613c3957600080fd5b613c4587828801613b94565b95989497509550505050565b6000610160828403128015613c6557600080fd5b509092915050565b606081016107db828464ffffffffff815116825264ffffffffff602082015116602083015264ffffffffff60408201511660408301525050565b60008060208385031215613cba57600080fd5b823567ffffffffffffffff811115613cd157600080fd5b613cdd85828601613b94565b90969095509350505050565b81516001600160a01b031681526101c081016020830151613d1560208401826001600160a01b03169052565b506040830151613d2e604084018264ffffffffff169052565b506060830151613d42606084018215159052565b506080830151613d56608084018215159052565b5060a0830151613d7160a08401826001600160a01b03169052565b5060c0830151613d8a60c084018264ffffffffff169052565b5060e0830151613d9e60e084018215159052565b50610100830151613db461010084018215159052565b50610120830151613dca61012084018215159052565b50610140830151613e116101408401826001600160801b0381511682526001600160801b0360208201511660208301526001600160801b0360408201511660408301525050565b50610160929092015164ffffffffff166101a0919091015290565b8015158114613a4e57600080fd5b80356123c781613e2c565b60008060408385031215613e5857600080fd5b8235613e6381613aea565b91506020830135613e7381613e2c565b809150509250929050565b6000610140828403128015613c6557600080fd5b634e487b7160e01b600052602160045260246000fd5b6020810160058310613eca57634e487b7160e01b600052602160045260246000fd5b91905290565b634e487b7160e01b600052604160045260246000fd5b604051610100810167ffffffffffffffff81118282101715613f0a57613f0a613ed0565b60405290565b604051601f8201601f1916810167ffffffffffffffff81118282101715613f3957613f39613ed0565b604052919050565b600067ffffffffffffffff821115613f5b57613f5b613ed0565b50601f01601f191660200190565b60008060008060808587031215613f7f57600080fd5b8435613f8a81613aea565b93506020850135613f9a81613aea565b925060408501359150606085013567ffffffffffffffff811115613fbd57600080fd5b8501601f81018713613fce57600080fd5b8035613fe1613fdc82613f41565b613f10565b818152886020838501011115613ff657600080fd5b8160208401602083013760006020838301015280935050505092959194509250565b6000806040838503121561402b57600080fd5b823591506020830135613e7381613aea565b6000806040838503121561405057600080fd5b823561405b81613aea565b91506020830135613e7381613aea565b80356001600160801b03811681146123c757600080fd5b60008060006060848603121561409757600080fd5b8335925060208401356140a981613aea565b91506140b76040850161406b565b90509250925092565b600181811c908216806140d457607f821691505b60208210810361096157634e487b7160e01b600052602260045260246000fd5b634e487b7160e01b600052601160045260246000fd5b6001600160801b0382811682821603908111156107db576107db6140f4565b60006020828403121561413b57600080fd5b815161247081613e2c565b634e487b7160e01b600052603260045260246000fd5b60006020828403121561416e57600080fd5b6124708261406b565b803564ffffffffff811681146123c757600080fd5b60006060828403121561419e57600080fd5b6040516060810167ffffffffffffffff811182821017156141c1576141c1613ed0565b6040529050806141d083614177565b81526141de60208401614177565b60208201526141ef60408401614177565b60408201525092915050565b60006040828403121561420d57600080fd5b6040805190810167ffffffffffffffff8111828210171561423057614230613ed0565b604052905080823561424181613aea565b8152602092830135920191909152919050565b600061016082840312801561426857600080fd5b50614271613ee6565b61427a83613aff565b815261428860208401613aff565b60208201526142996040840161406b565b60408201526142aa60608401613aff565b60608201526142bb60808401613e3a565b60808201526142cc60a08401613e3a565b60a08201526142de8460c0850161418c565b60c08201526142f18461012085016141fb565b60e08201529392505050565b818103818111156107db576107db6140f4565b60006020828403121561432257600080fd5b61247082614177565b60006020828403121561433d57600080fd5b813561247081613e2c565b60006040828403121561435a57600080fd5b61247083836141fb565b60006020828403121561437657600080fd5b815167ffffffffffffffff81111561438d57600080fd5b8201601f8101841361439e57600080fd5b80516143ac613fdc82613f41565b8181528560208385010111156143c157600080fd5b6143d2826020830160208601613a6e565b95945050505050565b6000602082840312156143ed57600080fd5b815161247081613a38565b8781526001600160a01b03871660208083019190915286516001600160801b03908116604084015290870151166060820152841515608082015283151560a0820152610140810161447860c083018564ffffffffff815116825264ffffffffff602082015116602083015264ffffffffff60408201511660408301525050565b6001600160a01b039290921661012091909101529695505050505050565b6001600160a01b03858116825284166020820152604081018390526080606082018190526000906144c990830184613a92565b9695505050505050565b6001600160801b0381811683821601908111156107db576107db6140f4565b634e487b7160e01b600052600160045260246000fd5b634e487b7160e01b600052601260045260246000fdfef8e1a15aba9398e019f0b49df1a4fde98ee17ae345cb5f6b5e2c27f5033e8ce7a264697066735822122059219d7670ef6fd8bf5ad3fd7b9f4c929cf7d1e194f7e4917630ccd3a0282cb064736f6c634300081b0033",
  "linkReferences": {},
  "deployedLinkReferences": {}
}