{
  "_format": "hh-sol-artifact-1",
  "contractName": "Game",
  "sourceName": "contracts/game/Game.sol",
  "abi": [
    {
      "inputs": [],
      "stateMutability": "nonpayable",
      "type": "constructor"
    },
    {
      "inputs": [],
      "name": "ArrayLengthMissmatch",
      "type": "error"
    },
    {
      "inputs": [],
      "name": "ECDSAInvalidSignature",
      "type": "error"
    },
    {
      "inputs": [
        {
          "internalType": "uint256",
          "name": "length",
          "type": "uint256"
        }
      ],
      "name": "ECDSAInvalidSignatureLength",
      "type": "error"
    },
    {
      "inputs": [
        {
          "internalType": "bytes32",
          "name": "s",
          "type": "bytes32"
        }
      ],
      "name": "ECDSAInvalidSignatureS",
      "type": "error"
    },
    {
      "inputs": [],
      "name": "GameActiveAlready",
      "type": "error"
    },
    {
      "inputs": [],
      "name": "GameNotActive",
      "type": "error"
    },
    {
      "inputs": [],
      "name": "InsufficientBalance",
      "type": "error"
    },
    {
      "inputs": [],
      "name": "InvalidClientSignature",
      "type": "error"
    },
    {
      "inputs": [],
      "name": "InvalidEther",
      "type": "error"
    },
    {
      "inputs": [],
      "name": "NotWinner",
      "type": "error"
    },
    {
      "inputs": [
        {
          "internalType": "address",
          "name": "owner",
          "type": "address"
        }
      ],
      "name": "OwnableInvalidOwner",
      "type": "error"
    },
    {
      "inputs": [
        {
          "internalType": "address",
          "name": "account",
          "type": "address"
        }
      ],
      "name": "OwnableUnauthorizedAccount",
      "type": "error"
    },
    {
      "inputs": [],
      "name": "UsedSignature",
      "type": "error"
    },
    {
      "anonymous": false,
      "inputs": [
        {
          "indexed": true,
          "internalType": "address",
          "name": "previousOwner",
          "type": "address"
        },
        {
          "indexed": true,
          "internalType": "address",
          "name": "newOwner",
          "type": "address"
        }
      ],
      "name": "OwnershipTransferred",
      "type": "event"
    },
    {
      "anonymous": false,
      "inputs": [
        {
          "indexed": true,
          "internalType": "address",
          "name": "player",
          "type": "address"
        },
        {
          "components": [
            {
              "internalType": "address",
              "name": "sender",
              "type": "address"
            },
            {
              "internalType": "address",
              "name": "recipient",
              "type": "address"
            },
            {
              "internalType": "uint40",
              "name": "startTime",
              "type": "uint40"
            },
            {
              "internalType": "bool",
              "name": "isCancelable",
              "type": "bool"
            },
            {
              "internalType": "bool",
              "name": "wasCanceled",
              "type": "bool"
            },
            {
              "internalType": "contract IERC20",
              "name": "asset",
              "type": "address"
            },
            {
              "internalType": "uint40",
              "name": "endTime",
              "type": "uint40"
            },
            {
              "internalType": "bool",
              "name": "isDepleted",
              "type": "bool"
            },
            {
              "internalType": "bool",
              "name": "isStream",
              "type": "bool"
            },
            {
              "internalType": "bool",
              "name": "isTransferable",
              "type": "bool"
            },
            {
              "components": [
                {
                  "internalType": "uint128",
                  "name": "deposited",
                  "type": "uint128"
                },
                {
                  "internalType": "uint128",
                  "name": "withdrawn",
                  "type": "uint128"
                },
                {
                  "internalType": "uint128",
                  "name": "refunded",
                  "type": "uint128"
                }
              ],
              "internalType": "struct Lockup.Amounts",
              "name": "amounts",
              "type": "tuple"
            },
            {
              "internalType": "uint40",
              "name": "cliffTime",
              "type": "uint40"
            }
          ],
          "indexed": true,
          "internalType": "struct LockupLinear.StreamLL",
          "name": "stream",
          "type": "tuple"
        }
      ],
      "name": "Play",
      "type": "event"
    },
    {
      "anonymous": false,
      "inputs": [
        {
          "components": [
            {
              "internalType": "enum GameTypes.Prize",
              "name": "prizeType",
              "type": "uint8"
            },
            {
              "internalType": "uint256",
              "name": "amount",
              "type": "uint256"
            }
          ],
          "indexed": true,
          "internalType": "struct GameTypes.GamePrize",
          "name": "prize",
          "type": "tuple"
        },
        {
          "indexed": true,
          "internalType": "address",
          "name": "player",
          "type": "address"
        }
      ],
      "name": "PlayerClaimed",
      "type": "event"
    },
    {
      "anonymous": false,
      "inputs": [
        {
          "indexed": true,
          "internalType": "uint256",
          "name": "stream",
          "type": "uint256"
        }
      ],
      "name": "StreamDistributed",
      "type": "event"
    },
    {
      "anonymous": false,
      "inputs": [
        {
          "indexed": true,
          "internalType": "address",
          "name": "player",
          "type": "address"
        },
        {
          "components": [
            {
              "internalType": "enum GameTypes.Prize",
              "name": "prizeType",
              "type": "uint8"
            },
            {
              "internalType": "uint256",
              "name": "amount",
              "type": "uint256"
            }
          ],
          "indexed": true,
          "internalType": "struct GameTypes.GamePrize",
          "name": "prize",
          "type": "tuple"
        }
      ],
      "name": "WinnerChosen",
      "type": "event"
    },
    {
      "inputs": [],
      "name": "CREATOR",
      "outputs": [
        {
          "internalType": "contract StreamCreator",
          "name": "",
          "type": "address"
        }
      ],
      "stateMutability": "view",
      "type": "function"
    },
    {
      "inputs": [],
      "name": "GAME_ACTIVE",
      "outputs": [
        {
          "internalType": "bool",
          "name": "",
          "type": "bool"
        }
      ],
      "stateMutability": "view",
      "type": "function"
    },
    {
      "inputs": [],
      "name": "GAME_PRIZE",
      "outputs": [
        {
          "internalType": "enum GameTypes.Prize",
          "name": "prizeType",
          "type": "uint8"
        },
        {
          "internalType": "uint256",
          "name": "amount",
          "type": "uint256"
        }
      ],
      "stateMutability": "view",
      "type": "function"
    },
    {
      "inputs": [],
      "name": "MAX_TOKEN_LENGTH",
      "outputs": [
        {
          "internalType": "uint40",
          "name": "",
          "type": "uint40"
        }
      ],
      "stateMutability": "view",
      "type": "function"
    },
    {
      "inputs": [],
      "name": "NFT_TOKEN",
      "outputs": [
        {
          "internalType": "contract NFT",
          "name": "",
          "type": "address"
        }
      ],
      "stateMutability": "view",
      "type": "function"
    },
    {
      "inputs": [],
      "name": "PLAY_COST",
      "outputs": [
        {
          "internalType": "uint256",
          "name": "",
          "type": "uint256"
        }
      ],
      "stateMutability": "view",
      "type": "function"
    },
    {
      "inputs": [],
      "name": "TOKEN",
      "outputs": [
        {
          "internalType": "contract Token",
          "name": "",
          "type": "address"
        }
      ],
      "stateMutability": "view",
      "type": "function"
    },
    {
      "inputs": [],
      "name": "claimPrize",
      "outputs": [],
      "stateMutability": "nonpayable",
      "type": "function"
    },
    {
      "inputs": [],
      "name": "owner",
      "outputs": [
        {
          "internalType": "address",
          "name": "",
          "type": "address"
        }
      ],
      "stateMutability": "view",
      "type": "function"
    },
    {
      "inputs": [],
      "name": "play",
      "outputs": [],
      "stateMutability": "nonpayable",
      "type": "function"
    },
    {
      "inputs": [],
      "name": "playerScoresTime",
      "outputs": [
        {
          "internalType": "address[]",
          "name": "",
          "type": "address[]"
        },
        {
          "internalType": "uint256[]",
          "name": "",
          "type": "uint256[]"
        },
        {
          "internalType": "uint256[]",
          "name": "",
          "type": "uint256[]"
        }
      ],
      "stateMutability": "view",
      "type": "function"
    },
    {
      "inputs": [
        {
          "internalType": "uint256",
          "name": "",
          "type": "uint256"
        }
      ],
      "name": "playersKeys",
      "outputs": [
        {
          "internalType": "address",
          "name": "",
          "type": "address"
        }
      ],
      "stateMutability": "view",
      "type": "function"
    },
    {
      "inputs": [],
      "name": "renounceOwnership",
      "outputs": [],
      "stateMutability": "nonpayable",
      "type": "function"
    },
    {
      "inputs": [
        {
          "internalType": "uint256",
          "name": "",
          "type": "uint256"
        }
      ],
      "name": "scores",
      "outputs": [
        {
          "internalType": "uint256",
          "name": "",
          "type": "uint256"
        }
      ],
      "stateMutability": "view",
      "type": "function"
    },
    {
      "inputs": [
        {
          "internalType": "uint256",
          "name": "cost",
          "type": "uint256"
        },
        {
          "internalType": "uint40",
          "name": "maxTokenLength",
          "type": "uint40"
        },
        {
          "internalType": "address",
          "name": "tokenAddress",
          "type": "address"
        },
        {
          "internalType": "address",
          "name": "nftAddress",
          "type": "address"
        },
        {
          "internalType": "address",
          "name": "sablierAddress",
          "type": "address"
        },
        {
          "components": [
            {
              "internalType": "enum GameTypes.Prize",
              "name": "prizeType",
              "type": "uint8"
            },
            {
              "internalType": "uint256",
              "name": "amount",
              "type": "uint256"
            }
          ],
          "internalType": "struct GameTypes.GamePrize",
          "name": "prize",
          "type": "tuple"
        }
      ],
      "name": "setGameConfig",
      "outputs": [],
      "stateMutability": "nonpayable",
      "type": "function"
    },
    {
      "inputs": [
        {
          "internalType": "uint256",
          "name": "",
          "type": "uint256"
        }
      ],
      "name": "times",
      "outputs": [
        {
          "internalType": "uint256",
          "name": "",
          "type": "uint256"
        }
      ],
      "stateMutability": "view",
      "type": "function"
    },
    {
      "inputs": [
        {
          "internalType": "address",
          "name": "newOwner",
          "type": "address"
        }
      ],
      "name": "transferOwnership",
      "outputs": [],
      "stateMutability": "nonpayable",
      "type": "function"
    },
    {
      "inputs": [
        {
          "internalType": "uint256",
          "name": "amount",
          "type": "uint256"
        }
      ],
      "name": "unwrapPlayToken",
      "outputs": [],
      "stateMutability": "payable",
      "type": "function"
    },
    {
      "inputs": [
        {
          "internalType": "uint256[]",
          "name": "scores_",
          "type": "uint256[]"
        },
        {
          "internalType": "uint256[]",
          "name": "times_",
          "type": "uint256[]"
        },
        {
          "internalType": "address[]",
          "name": "players_",
          "type": "address[]"
        },
        {
          "internalType": "bytes",
          "name": "signature",
          "type": "bytes"
        }
      ],
      "name": "uploadScore",
      "outputs": [],
      "stateMutability": "nonpayable",
      "type": "function"
    },
    {
      "inputs": [
        {
          "internalType": "bytes",
          "name": "signature",
          "type": "bytes"
        }
      ],
      "name": "usedSignatures",
      "outputs": [
        {
          "internalType": "bool",
          "name": "used",
          "type": "bool"
        }
      ],
      "stateMutability": "view",
      "type": "function"
    },
    {
      "inputs": [],
      "name": "wrapPlayToken",
      "outputs": [],
      "stateMutability": "payable",
      "type": "function"
    }
  ],
  "bytecode": "0x6080604052348015600f57600080fd5b503380603557604051631e4fbdf760e01b81526000600482015260240160405180910390fd5b603c816041565b506091565b600080546001600160a01b038381166001600160a01b0319831681178455604051919092169283917f8be0079c531659141344cd1fd0a4f28419497f9722a3daafe3b4186f6b6457e09190a35050565b611bdf806100a06000396000f3fe60806040526004361061012a5760003560e01c8063715018a6116100ab578063b216a6c61161006f578063b216a6c614610326578063b300c18b1461033c578063d6c5188b1461034f578063e4fbb60914610383578063e949580e146103a3578063f2fde38b146103de57600080fd5b8063715018a61461029a57806376d0adf1146102af57806382bfefc8146102d35780638da5cb5b146102f357806393e84cd91461031157600080fd5b806332f48e5b116100f257806332f48e5b1461020c57806339ad9141146102145780633b6942f31461023457806357b1d1811461025457806370740ac91461028557600080fd5b80631517929d1461012f578063174331dd146101515780631a32af021461018657806320982bce146101be5780632ee691a3146101ec575b600080fd5b34801561013b57600080fd5b5061014f61014a36600461142f565b6103fe565b005b34801561015d57600080fd5b5060085460095461016f9160ff169082565b60405161017d929190611589565b60405180910390f35b34801561019257600080fd5b506006546101a6906001600160a01b031681565b6040516001600160a01b03909116815260200161017d565b3480156101ca57600080fd5b506101de6101d93660046115a4565b6105b2565b60405190815260200161017d565b3480156101f857600080fd5b506101de6102073660046115a4565b6105d3565b61014f6105e3565b34801561022057600080fd5b5061014f61022f3660046115d0565b610669565b34801561024057600080fd5b506101a661024f3660046115a4565b61073f565b34801561026057600080fd5b50600a5461027590600160281b900460ff1681565b604051901515815260200161017d565b34801561029157600080fd5b5061014f610769565b3480156102a657600080fd5b5061014f6109f4565b3480156102bb57600080fd5b506102c4610a08565b60405161017d939291906116b2565b3480156102df57600080fd5b506005546101a6906001600160a01b031681565b3480156102ff57600080fd5b506000546001600160a01b03166101a6565b34801561031d57600080fd5b5061014f610b1e565b34801561033257600080fd5b506101de60045481565b61014f61034a3660046115a4565b610dd6565b34801561035b57600080fd5b50600a5461036d9064ffffffffff1681565b60405164ffffffffff909116815260200161017d565b34801561038f57600080fd5b506007546101a6906001600160a01b031681565b3480156103af57600080fd5b506102756103be366004611728565b8051602081830181018051600c8252928201919093012091525460ff1681565b3480156103ea57600080fd5b5061014f6103f9366004611765565b610f0f565b600a54600160281b900460ff166104275760405162a3097160e01b815260040160405180910390fd5b825184511415801561043b57508151845114155b8061044557508151155b806104515750600a8251115b1561046f57604051633fa20ad760e11b815260040160405180910390fd5b600c8160405161047f9190611789565b9081526040519081900360200190205460ff16156104b05760405163333a6a0960e21b815260040160405180910390fd5b6000848484466040516020016104c994939291906117de565b604051602081830303815290604052805190602001209050600061051a827f19457468657265756d205369676e6564204d6573736167653a0a3332000000006000908152601c91909152603c902090565b905060006105288285610f52565b905061053c6000546001600160a01b031690565b6001600160a01b0316816001600160a01b03161461056d5760405163dfd8f8f160e01b815260040160405180910390fd5b86516105809060029060208a01906111d0565b50845161059490600390602088019061121b565b5085516105a89060019060208901906111d0565b5050505050505050565b600181815481106105c257600080fd5b600091825260209091200154905081565b600281815481106105c257600080fd5b600034116106045760405163ce0e9e8560e01b815260040160405180910390fd5b6005546040516340c10f1960e01b81523360048201523460248201526001600160a01b03909116906340c10f1990604401600060405180830381600087803b15801561064f57600080fd5b505af1158015610663573d6000803e3d6000fd5b50505050565b610671610f7e565b600a54600160281b900460ff161561069c5760405163c061864b60e01b815260040160405180910390fd5b6004869055600780546001600160a01b038085166001600160a01b031992831617909255600580548784169083161790556006805492861692909116919091179055805160088054839290829060ff1916600183600281111561070157610701611551565b0217905550602091909101516001909101555050600a805464ffffffffff90941665ffffffffffff1990941693909317600160281b17909255505050565b6003818154811061074f57600080fd5b6000918252602090912001546001600160a01b0316905081565b600a54600160281b900460ff166107925760405162a3097160e01b815260040160405180910390fd5b336000908152600b602052604090206001015460ff166107c5576040516330c6392160e11b815260040160405180910390fd5b600260085460ff1660028111156107de576107de611551565b03610857576006546040516335313c2160e11b81523360048201526001600160a01b0390911690636a627842906024016020604051808303816000875af115801561082d573d6000803e3d6000fd5b505050506040513d601f19601f820116820180604052508101906108519190611835565b50610999565b600160085460ff16600281111561087057610870611551565b03610930576007546009546001600160a01b039091169063662eaa5490339061089c426201518061184e565b6000426040518663ffffffff1660e01b81526004016108bf95949392919061186f565b6020604051808303816000875af11580156108de573d6000803e3d6000fd5b505050506040513d601f19601f820116820180604052508101906109029190611835565b6040517f396f073462353bc138266cadb3a5ed890608c9d97c880179f24f9345e111326b90600090a2610999565b6005546009546040516340c10f1960e01b815233600482015260248101919091526001600160a01b03909116906340c10f1990604401600060405180830381600087803b15801561098057600080fd5b505af1158015610994573d6000803e3d6000fd5b505050505b336000818152600b602052604090819020600101805460ff19169055516109c2906008906118a6565b604051908190038120907f03e4019ac938e822e5d289bc0529ece67f04525b963d07da8a26b103bb51973390600090a3565b6109fc610f7e565b610a066000610fab565b565b606080606060036002600182805480602002602001604051908101604052809291908181526020018280548015610a6857602002820191906000526020600020905b81546001600160a01b03168152600190910190602001808311610a4a575b5050505050925081805480602002602001604051908101604052809291908181526020018280548015610aba57602002820191906000526020600020905b815481526020019060010190808311610aa6575b5050505050915080805480602002602001604051908101604052809291908181526020018280548015610b0c57602002820191906000526020600020905b815481526020019060010190808311610af8575b50505050509050925092509250909192565b600a54600160281b900460ff16610b475760405162a3097160e01b815260040160405180910390fd5b336000908152600b60205260408082206007548154925163894e9a0d60e01b815260048101939093529092916001600160a01b039091169063894e9a0d906024016101c060405180830381865afa158015610ba6573d6000803e3d6000fd5b505050506040513d601f19601f82011682018060405250810190610bca9190611977565b9050428160c0015164ffffffffff161015610d1a57600554600480546040516323b872dd60e01b8152339281019290925230602483015260448201526000916001600160a01b0316906323b872dd906064016020604051808303816000875af1158015610c3b573d6000803e3d6000fd5b505050506040513d601f19601f82011682018060405250810190610c5f9190611a6a565b905080610c7f57604051631e9acf1760e31b815260040160405180910390fd5b600754600454600a546000926001600160a01b03169163662eaa5491339190610caf9064ffffffffff164261184e565b6000426040518663ffffffff1660e01b8152600401610cd295949392919061186f565b6020604051808303816000875af1158015610cf1573d6000803e3d6000fd5b505050506040513d601f19601f82011682018060405250810190610d159190611835565b845550505b600754825460405163894e9a0d60e01b81526001600160a01b039092169163894e9a0d91610d4e9160040190815260200190565b6101c060405180830381865afa158015610d6c573d6000803e3d6000fd5b505050506040513d601f19601f82011682018060405250810190610d909190611977565b905080604051610da09190611a85565b6040519081900381209033907f83066c3238fa2f94e88ffe02deb667a2fa04ff471c72287f9d6d03cec6aa194290600090a35050565b60003411610df75760405163ce0e9e8560e01b815260040160405180910390fd5b6005546040516323b872dd60e01b8152336004820152306024820152604481018390526000916001600160a01b0316906323b872dd906064016020604051808303816000875af1158015610e4f573d6000803e3d6000fd5b505050506040513d601f19601f82011682018060405250810190610e739190611a6a565b905080610e9357604051631e9acf1760e31b815260040160405180910390fd5b60405161060f60f31b81523390839060020160006040518083038185875af1925050503d8060008114610ee2576040519150601f19603f3d011682016040523d82523d6000602084013e610ee7565b606091505b50508091505080610f0b57604051631e9acf1760e31b815260040160405180910390fd5b5050565b610f17610f7e565b6001600160a01b038116610f4657604051631e4fbdf760e01b8152600060048201526024015b60405180910390fd5b610f4f81610fab565b50565b600080600080610f628686610ffb565b925092509250610f728282611048565b50909150505b92915050565b6000546001600160a01b03163314610a065760405163118cdaa760e01b8152336004820152602401610f3d565b600080546001600160a01b038381166001600160a01b0319831681178455604051919092169283917f8be0079c531659141344cd1fd0a4f28419497f9722a3daafe3b4186f6b6457e09190a35050565b600080600083516041036110355760208401516040850151606086015160001a61102788828585611101565b955095509550505050611041565b50508151600091506002905b9250925092565b600082600381111561105c5761105c611551565b03611065575050565b600182600381111561107957611079611551565b036110975760405163f645eedf60e01b815260040160405180910390fd5b60028260038111156110ab576110ab611551565b036110cc5760405163fce698f760e01b815260048101829052602401610f3d565b60038260038111156110e0576110e0611551565b03610f0b576040516335e2f38360e21b815260048101829052602401610f3d565b600080807f7fffffffffffffffffffffffffffffff5d576e7357a4501ddfe92f46681b20a084111561113c57506000915060039050826111c6565b604080516000808252602082018084528a905260ff891692820192909252606081018790526080810186905260019060a0016020604051602081039080840390855afa158015611190573d6000803e3d6000fd5b5050604051601f1901519150506001600160a01b0381166111bc575060009250600191508290506111c6565b9250600091508190505b9450945094915050565b82805482825590600052602060002090810192821561120b579160200282015b8281111561120b5782518255916020019190600101906111f0565b50611217929150611270565b5090565b82805482825590600052602060002090810192821561120b579160200282015b8281111561120b57825182546001600160a01b0319166001600160a01b0390911617825560209092019160019091019061123b565b5b808211156112175760008155600101611271565b634e487b7160e01b600052604160045260246000fd5b6040805190810167ffffffffffffffff811182821017156112be576112be611285565b60405290565b604051610180810167ffffffffffffffff811182821017156112be576112be611285565b604051601f8201601f1916810167ffffffffffffffff8111828210171561131157611311611285565b604052919050565b600067ffffffffffffffff82111561133357611333611285565b5060051b60200190565b600082601f83011261134e57600080fd5b813561136161135c82611319565b6112e8565b8082825260208201915060208360051b86010192508583111561138357600080fd5b602085015b838110156113a0578035835260209283019201611388565b5095945050505050565b6001600160a01b0381168114610f4f57600080fd5b600082601f8301126113d057600080fd5b813567ffffffffffffffff8111156113ea576113ea611285565b6113fd601f8201601f19166020016112e8565b81815284602083860101111561141257600080fd5b816020850160208301376000918101602001919091529392505050565b6000806000806080858703121561144557600080fd5b843567ffffffffffffffff81111561145c57600080fd5b6114688782880161133d565b945050602085013567ffffffffffffffff81111561148557600080fd5b6114918782880161133d565b935050604085013567ffffffffffffffff8111156114ae57600080fd5b8501601f810187136114bf57600080fd5b80356114cd61135c82611319565b8082825260208201915060208360051b8501019250898311156114ef57600080fd5b6020840193505b8284101561151a578335611509816113aa565b8252602093840193909101906114f6565b9450505050606085013567ffffffffffffffff81111561153957600080fd5b611545878288016113bf565b91505092959194509250565b634e487b7160e01b600052602160045260246000fd5b6003811061158557634e487b7160e01b600052602160045260246000fd5b9052565b604081016115978285611567565b8260208301529392505050565b6000602082840312156115b657600080fd5b5035919050565b64ffffffffff81168114610f4f57600080fd5b60008060008060008086880360e08112156115ea57600080fd5b8735965060208801356115fc816115bd565b9550604088013561160c816113aa565b9450606088013561161c816113aa565b9350608088013561162c816113aa565b92506040609f198201121561164057600080fd5b5061164961129b565b60a08801356003811061165b57600080fd5b815260c0979097013560208801525093969295509093909291565b600081518084526020840193506020830160005b828110156116a857815186526020958601959091019060010161168a565b5093949350505050565b6060808252845190820181905260009060208601906080840190835b818110156116f55783516001600160a01b03168352602093840193909201916001016116ce565b505083810360208501526117098187611676565b915050828103604084015261171e8185611676565b9695505050505050565b60006020828403121561173a57600080fd5b813567ffffffffffffffff81111561175157600080fd5b61175d848285016113bf565b949350505050565b60006020828403121561177757600080fd5b8135611782816113aa565b9392505050565b6000825160005b818110156117aa5760208186018101518583015201611790565b506000920191825250919050565b8051600090602083018282156116a857815186526020958601959091019060010161168a565b60006117f36117ed83886117b8565b866117b8565b84516020860160005b828110156118235781516001600160a01b03168452602093840193909101906001016117fc565b50505092835250506020019392505050565b60006020828403121561184757600080fd5b5051919050565b80820180821115610f7857634e487b7160e01b600052601160045260246000fd5b6001600160a01b03959095168552602085019390935264ffffffffff91821660408501528116606084015216608082015260a00190565b6118b48160ff845416611567565b60019190910154602082015260400190565b80516118d1816113aa565b919050565b80516118d1816115bd565b805180151581146118d157600080fd5b80516001600160801b03811681146118d157600080fd5b60006060828403121561191a57600080fd5b6040516060810167ffffffffffffffff8111828210171561193d5761193d611285565b60405290508061194c836118f1565b815261195a602084016118f1565b602082015261196b604084016118f1565b60408201525092915050565b60006101c082840312801561198b57600080fd5b506119946112c4565b61199d836118c6565b81526119ab602084016118c6565b60208201526119bc604084016118d6565b60408201526119cd606084016118e1565b60608201526119de608084016118e1565b60808201526119ef60a084016118c6565b60a0820152611a0060c084016118d6565b60c0820152611a1160e084016118e1565b60e0820152611a2361010084016118e1565b610100820152611a3661012084016118e1565b610120820152611a4a846101408501611908565b610140820152611a5d6101a084016118d6565b6101608201529392505050565b600060208284031215611a7c57600080fd5b611782826118e1565b81516001600160a01b03168152611b9f611b8a611b58611b48611b38611b29611b15611aff611af0611ae1611acd60208c0160208e01516001600160a01b0316815260200190565b60408d015164ffffffffff16815260200190565b60608c01511515815260200190565b60808b01511515815260200190565b60a08a01516001600160a01b0316815260200190565b60c089015164ffffffffff16815260200190565b60e08801511515815260200190565b6101008701511515815260200190565b6101208601511515815260200190565b61014085015180516001600160801b039081168352602080830151821690840152604091820151169082015260600190565b61016084015164ffffffffff16815260200190565b506101c00191905056fea2646970667358221220bb4a72a5b8e76afbd70b9e64da50552f324bff6a24e3b623d17749620fb01b6664736f6c634300081b0033",
  "linkReferences": {},
  "deployedLinkReferences": {}
}