{
  "_format": "hh-sol-artifact-1",
  "contractName": "Token",
  "sourceName": "contracts/tokens/Token.sol",
  "abi": [
    {
      "inputs": [
        {
          "internalType": "string",
          "name": "name_",
          "type": "string"
        },
        {
          "internalType": "string",
          "name": "symbol_",
          "type": "string"
        },
        {
          "internalType": "address",
          "name": "gameAddress",
          "type": "address"
        }
      ],
      "stateMutability": "nonpayable",
      "type": "constructor"
    },
    {
      "inputs": [
        {
          "internalType": "address",
          "name": "spender",
          "type": "address"
        },
        {
          "internalType": "uint256",
          "name": "allowance",
          "type": "uint256"
        },
        {
          "internalType": "uint256",
          "name": "needed",
          "type": "uint256"
        }
      ],
      "name": "ERC20InsufficientAllowance",
      "type": "error"
    },
    {
      "inputs": [
        {
          "internalType": "address",
          "name": "sender",
          "type": "address"
        },
        {
          "internalType": "uint256",
          "name": "balance",
          "type": "uint256"
        },
        {
          "internalType": "uint256",
          "name": "needed",
          "type": "uint256"
        }
      ],
      "name": "ERC20InsufficientBalance",
      "type": "error"
    },
    {
      "inputs": [
        {
          "internalType": "address",
          "name": "approver",
          "type": "address"
        }
      ],
      "name": "ERC20InvalidApprover",
      "type": "error"
    },
    {
      "inputs": [
        {
          "internalType": "address",
          "name": "receiver",
          "type": "address"
        }
      ],
      "name": "ERC20InvalidReceiver",
      "type": "error"
    },
    {
      "inputs": [
        {
          "internalType": "address",
          "name": "sender",
          "type": "address"
        }
      ],
      "name": "ERC20InvalidSender",
      "type": "error"
    },
    {
      "inputs": [
        {
          "internalType": "address",
          "name": "spender",
          "type": "address"
        }
      ],
      "name": "ERC20InvalidSpender",
      "type": "error"
    },
    {
      "inputs": [],
      "name": "NotAuthorised",
      "type": "error"
    },
    {
      "inputs": [
        {
          "internalType": "address",
          "name": "owner",
          "type": "address"
        }
      ],
      "name": "OwnableInvalidOwner",
      "type": "error"
    },
    {
      "inputs": [
        {
          "internalType": "address",
          "name": "account",
          "type": "address"
        }
      ],
      "name": "OwnableUnauthorizedAccount",
      "type": "error"
    },
    {
      "anonymous": false,
      "inputs": [
        {
          "indexed": true,
          "internalType": "address",
          "name": "owner",
          "type": "address"
        },
        {
          "indexed": true,
          "internalType": "address",
          "name": "spender",
          "type": "address"
        },
        {
          "indexed": false,
          "internalType": "uint256",
          "name": "value",
          "type": "uint256"
        }
      ],
      "name": "Approval",
      "type": "event"
    },
    {
      "anonymous": false,
      "inputs": [
        {
          "indexed": true,
          "internalType": "address",
          "name": "previousOwner",
          "type": "address"
        },
        {
          "indexed": true,
          "internalType": "address",
          "name": "newOwner",
          "type": "address"
        }
      ],
      "name": "OwnershipTransferred",
      "type": "event"
    },
    {
      "anonymous": false,
      "inputs": [
        {
          "indexed": true,
          "internalType": "address",
          "name": "from",
          "type": "address"
        },
        {
          "indexed": true,
          "internalType": "address",
          "name": "to",
          "type": "address"
        },
        {
          "indexed": false,
          "internalType": "uint256",
          "name": "value",
          "type": "uint256"
        }
      ],
      "name": "Transfer",
      "type": "event"
    },
    {
      "inputs": [],
      "name": "GAME_ADDRESS",
      "outputs": [
        {
          "internalType": "address",
          "name": "",
          "type": "address"
        }
      ],
      "stateMutability": "view",
      "type": "function"
    },
    {
      "inputs": [
        {
          "internalType": "address",
          "name": "owner",
          "type": "address"
        },
        {
          "internalType": "address",
          "name": "spender",
          "type": "address"
        }
      ],
      "name": "allowance",
      "outputs": [
        {
          "internalType": "uint256",
          "name": "",
          "type": "uint256"
        }
      ],
      "stateMutability": "view",
      "type": "function"
    },
    {
      "inputs": [
        {
          "internalType": "address",
          "name": "spender",
          "type": "address"
        },
        {
          "internalType": "uint256",
          "name": "value",
          "type": "uint256"
        }
      ],
      "name": "approve",
      "outputs": [
        {
          "internalType": "bool",
          "name": "",
          "type": "bool"
        }
      ],
      "stateMutability": "nonpayable",
      "type": "function"
    },
    {
      "inputs": [
        {
          "internalType": "address",
          "name": "account",
          "type": "address"
        }
      ],
      "name": "balanceOf",
      "outputs": [
        {
          "internalType": "uint256",
          "name": "",
          "type": "uint256"
        }
      ],
      "stateMutability": "view",
      "type": "function"
    },
    {
      "inputs": [],
      "name": "decimals",
      "outputs": [
        {
          "internalType": "uint8",
          "name": "",
          "type": "uint8"
        }
      ],
      "stateMutability": "view",
      "type": "function"
    },
    {
      "inputs": [
        {
          "internalType": "address",
          "name": "to",
          "type": "address"
        },
        {
          "internalType": "uint256",
          "name": "amount",
          "type": "uint256"
        }
      ],
      "name": "mint",
      "outputs": [],
      "stateMutability": "nonpayable",
      "type": "function"
    },
    {
      "inputs": [],
      "name": "name",
      "outputs": [
        {
          "internalType": "string",
          "name": "",
          "type": "string"
        }
      ],
      "stateMutability": "view",
      "type": "function"
    },
    {
      "inputs": [],
      "name": "owner",
      "outputs": [
        {
          "internalType": "address",
          "name": "",
          "type": "address"
        }
      ],
      "stateMutability": "view",
      "type": "function"
    },
    {
      "inputs": [],
      "name": "renounceOwnership",
      "outputs": [],
      "stateMutability": "nonpayable",
      "type": "function"
    },
    {
      "inputs": [],
      "name": "symbol",
      "outputs": [
        {
          "internalType": "string",
          "name": "",
          "type": "string"
        }
      ],
      "stateMutability": "view",
      "type": "function"
    },
    {
      "inputs": [],
      "name": "totalSupply",
      "outputs": [
        {
          "internalType": "uint256",
          "name": "",
          "type": "uint256"
        }
      ],
      "stateMutability": "view",
      "type": "function"
    },
    {
      "inputs": [
        {
          "internalType": "address",
          "name": "to",
          "type": "address"
        },
        {
          "internalType": "uint256",
          "name": "value",
          "type": "uint256"
        }
      ],
      "name": "transfer",
      "outputs": [
        {
          "internalType": "bool",
          "name": "",
          "type": "bool"
        }
      ],
      "stateMutability": "nonpayable",
      "type": "function"
    },
    {
      "inputs": [
        {
          "internalType": "address",
          "name": "from",
          "type": "address"
        },
        {
          "internalType": "address",
          "name": "to",
          "type": "address"
        },
        {
          "internalType": "uint256",
          "name": "value",
          "type": "uint256"
        }
      ],
      "name": "transferFrom",
      "outputs": [
        {
          "internalType": "bool",
          "name": "",
          "type": "bool"
        }
      ],
      "stateMutability": "nonpayable",
      "type": "function"
    },
    {
      "inputs": [
        {
          "internalType": "address",
          "name": "newOwner",
          "type": "address"
        }
      ],
      "name": "transferOwnership",
      "outputs": [],
      "stateMutability": "nonpayable",
      "type": "function"
    }
  ],
  "bytecode": "0x60a060405234801561001057600080fd5b50604051610ee8380380610ee883398101604081905261002f91610323565b338383600361003e8382610437565b50600461004b8282610437565b5050506001600160a01b03811661007d57604051631e4fbdf760e01b8152600060048201526024015b60405180910390fd5b610086816100b4565b506100a0336e01ed09bead87c0378d8e6400000000610106565b6001600160a01b03166080525061051c9050565b600580546001600160a01b038381166001600160a01b0319831681179093556040519116919082907f8be0079c531659141344cd1fd0a4f28419497f9722a3daafe3b4186f6b6457e090600090a35050565b6001600160a01b0382166101305760405163ec442f0560e01b815260006004820152602401610074565b61013c60008383610140565b5050565b6001600160a01b03831661016b57806002600082825461016091906104f5565b909155506101dd9050565b6001600160a01b038316600090815260208190526040902054818110156101be5760405163391434e360e21b81526001600160a01b03851660048201526024810182905260448101839052606401610074565b6001600160a01b03841660009081526020819052604090209082900390555b6001600160a01b0382166101f957600280548290039055610218565b6001600160a01b03821660009081526020819052604090208054820190555b816001600160a01b0316836001600160a01b03167fddf252ad1be2c89b69c2b068fc378daa952ba7f163c4a11628f55a4df523b3ef8360405161025d91815260200190565b60405180910390a3505050565b634e487b7160e01b600052604160045260246000fd5b600082601f83011261029157600080fd5b81516001600160401b038111156102aa576102aa61026a565b604051601f8201601f19908116603f011681016001600160401b03811182821017156102d8576102d861026a565b6040528181528382016020018510156102f057600080fd5b60005b8281101561030f576020818601810151838301820152016102f3565b506000918101602001919091529392505050565b60008060006060848603121561033857600080fd5b83516001600160401b0381111561034e57600080fd5b61035a86828701610280565b602086015190945090506001600160401b0381111561037857600080fd5b61038486828701610280565b604086015190935090506001600160a01b03811681146103a357600080fd5b809150509250925092565b600181811c908216806103c257607f821691505b6020821081036103e257634e487b7160e01b600052602260045260246000fd5b50919050565b601f82111561043257806000526020600020601f840160051c8101602085101561040f5750805b601f840160051c820191505b8181101561042f576000815560010161041b565b50505b505050565b81516001600160401b038111156104505761045061026a565b6104648161045e84546103ae565b846103e8565b6020601f82116001811461049857600083156104805750848201515b600019600385901b1c1916600184901b17845561042f565b600084815260208120601f198516915b828110156104c857878501518255602094850194600190920191016104a8565b50848210156104e65786840151600019600387901b60f8161c191681555b50505050600190811b01905550565b8082018082111561051657634e487b7160e01b600052601160045260246000fd5b92915050565b6080516109aa61053e6000396000818161017e015261033c01526109aa6000f3fe608060405234801561001057600080fd5b50600436106100ea5760003560e01c806370a082311161008c57806395d89b411161006657806395d89b41146101fa578063a9059cbb14610202578063dd62ed3e14610215578063f2fde38b1461024e57600080fd5b806370a08231146101b8578063715018a6146101e15780638da5cb5b146101e957600080fd5b806323b872dd116100c857806323b872dd14610142578063313ce5671461015557806340c10f19146101645780635b96f6af1461017957600080fd5b806306fdde03146100ef578063095ea7b31461010d57806318160ddd14610130575b600080fd5b6100f7610261565b60405161010491906107f3565b60405180910390f35b61012061011b36600461085d565b6102f3565b6040519015158152602001610104565b6002545b604051908152602001610104565b610120610150366004610887565b61030d565b60405160128152602001610104565b61017761017236600461085d565b610331565b005b6101a07f000000000000000000000000000000000000000000000000000000000000000081565b6040516001600160a01b039091168152602001610104565b6101346101c63660046108c4565b6001600160a01b031660009081526020819052604090205490565b6101776103e1565b6005546001600160a01b03166101a0565b6100f76103f5565b61012061021036600461085d565b610404565b6101346102233660046108e6565b6001600160a01b03918216600090815260016020908152604080832093909416825291909152205490565b61017761025c3660046108c4565b610412565b60606003805461027090610919565b80601f016020809104026020016040519081016040528092919081815260200182805461029c90610919565b80156102e95780601f106102be576101008083540402835291602001916102e9565b820191906000526020600020905b8154815290600101906020018083116102cc57829003601f168201915b5050505050905090565b600033610301818585610450565b60019150505b92915050565b60003361031b858285610462565b6103268585856104e0565b506001949350505050565b336001600160a01b037f000000000000000000000000000000000000000000000000000000000000000016148061037257506005546001600160a01b031633145b6103d35760405162461bcd60e51b815260206004820152602760248201527f43616c6c657220646f6573206e6f742068617665207065726d697373696f6e206044820152661d1bc81b5a5b9d60ca1b60648201526084015b60405180910390fd5b6103dd828261053f565b5050565b6103e9610575565b6103f360006105a2565b565b60606004805461027090610919565b6000336103018185856104e0565b61041a610575565b6001600160a01b03811661044457604051631e4fbdf760e01b8152600060048201526024016103ca565b61044d816105a2565b50565b61045d83838360016105f4565b505050565b6001600160a01b0383811660009081526001602090815260408083209386168352929052205460001981146104da57818110156104cb57604051637dc7a0d960e11b81526001600160a01b038416600482015260248101829052604481018390526064016103ca565b6104da848484840360006105f4565b50505050565b6001600160a01b03831661050a57604051634b637e8f60e11b8152600060048201526024016103ca565b6001600160a01b0382166105345760405163ec442f0560e01b8152600060048201526024016103ca565b61045d8383836106c9565b6001600160a01b0382166105695760405163ec442f0560e01b8152600060048201526024016103ca565b6103dd600083836106c9565b6005546001600160a01b031633146103f35760405163118cdaa760e01b81523360048201526024016103ca565b600580546001600160a01b038381166001600160a01b0319831681179093556040519116919082907f8be0079c531659141344cd1fd0a4f28419497f9722a3daafe3b4186f6b6457e090600090a35050565b6001600160a01b03841661061e5760405163e602df0560e01b8152600060048201526024016103ca565b6001600160a01b03831661064857604051634a1406b160e11b8152600060048201526024016103ca565b6001600160a01b03808516600090815260016020908152604080832093871683529290522082905580156104da57826001600160a01b0316846001600160a01b03167f8c5be1e5ebec7d5bd14f71427d1e84f3dd0314c0f7b2291e5b200ac8c7c3b925846040516106bb91815260200190565b60405180910390a350505050565b6001600160a01b0383166106f45780600260008282546106e99190610953565b909155506107669050565b6001600160a01b038316600090815260208190526040902054818110156107475760405163391434e360e21b81526001600160a01b038516600482015260248101829052604481018390526064016103ca565b6001600160a01b03841660009081526020819052604090209082900390555b6001600160a01b038216610782576002805482900390556107a1565b6001600160a01b03821660009081526020819052604090208054820190555b816001600160a01b0316836001600160a01b03167fddf252ad1be2c89b69c2b068fc378daa952ba7f163c4a11628f55a4df523b3ef836040516107e691815260200190565b60405180910390a3505050565b602081526000825180602084015260005b818110156108215760208186018101516040868401015201610804565b506000604082850101526040601f19601f83011684010191505092915050565b80356001600160a01b038116811461085857600080fd5b919050565b6000806040838503121561087057600080fd5b61087983610841565b946020939093013593505050565b60008060006060848603121561089c57600080fd5b6108a584610841565b92506108b360208501610841565b929592945050506040919091013590565b6000602082840312156108d657600080fd5b6108df82610841565b9392505050565b600080604083850312156108f957600080fd5b61090283610841565b915061091060208401610841565b90509250929050565b600181811c9082168061092d57607f821691505b60208210810361094d57634e487b7160e01b600052602260045260246000fd5b50919050565b8082018082111561030757634e487b7160e01b600052601160045260246000fdfea26469706673582212209430e0b47292316b1f8b1bdf15c83ee31c12c3da885b7a344da612a3a84f1f2864736f6c634300081b0033",
  "linkReferences": {},
  "deployedLinkReferences": {}
}