{
  "_format": "hh-sol-artifact-1",
  "contractName": "NFT",
  "sourceName": "contracts/tokens/NFT.sol",
  "abi": [
    {
      "inputs": [
        {
          "internalType": "string",
          "name": "name_",
          "type": "string"
        },
        {
          "internalType": "string",
          "name": "symbol_",
          "type": "string"
        },
        {
          "internalType": "address",
          "name": "gameAddress",
          "type": "address"
        }
      ],
      "stateMutability": "nonpayable",
      "type": "constructor"
    },
    {
      "inputs": [
        {
          "internalType": "address",
          "name": "sender",
          "type": "address"
        },
        {
          "internalType": "uint256",
          "name": "tokenId",
          "type": "uint256"
        },
        {
          "internalType": "address",
          "name": "owner",
          "type": "address"
        }
      ],
      "name": "ERC721IncorrectOwner",
      "type": "error"
    },
    {
      "inputs": [
        {
          "internalType": "address",
          "name": "operator",
          "type": "address"
        },
        {
          "internalType": "uint256",
          "name": "tokenId",
          "type": "uint256"
        }
      ],
      "name": "ERC721InsufficientApproval",
      "type": "error"
    },
    {
      "inputs": [
        {
          "internalType": "address",
          "name": "approver",
          "type": "address"
        }
      ],
      "name": "ERC721InvalidApprover",
      "type": "error"
    },
    {
      "inputs": [
        {
          "internalType": "address",
          "name": "operator",
          "type": "address"
        }
      ],
      "name": "ERC721InvalidOperator",
      "type": "error"
    },
    {
      "inputs": [
        {
          "internalType": "address",
          "name": "owner",
          "type": "address"
        }
      ],
      "name": "ERC721InvalidOwner",
      "type": "error"
    },
    {
      "inputs": [
        {
          "internalType": "address",
          "name": "receiver",
          "type": "address"
        }
      ],
      "name": "ERC721InvalidReceiver",
      "type": "error"
    },
    {
      "inputs": [
        {
          "internalType": "address",
          "name": "sender",
          "type": "address"
        }
      ],
      "name": "ERC721InvalidSender",
      "type": "error"
    },
    {
      "inputs": [
        {
          "internalType": "uint256",
          "name": "tokenId",
          "type": "uint256"
        }
      ],
      "name": "ERC721NonexistentToken",
      "type": "error"
    },
    {
      "inputs": [],
      "name": "InvalidTokenQuantity",
      "type": "error"
    },
    {
      "inputs": [],
      "name": "NotAuthorised",
      "type": "error"
    },
    {
      "inputs": [
        {
          "internalType": "address",
          "name": "owner",
          "type": "address"
        }
      ],
      "name": "OwnableInvalidOwner",
      "type": "error"
    },
    {
      "inputs": [
        {
          "internalType": "address",
          "name": "account",
          "type": "address"
        }
      ],
      "name": "OwnableUnauthorizedAccount",
      "type": "error"
    },
    {
      "inputs": [],
      "name": "TokensNotMinted",
      "type": "error"
    },
    {
      "anonymous": false,
      "inputs": [
        {
          "indexed": true,
          "internalType": "address",
          "name": "owner",
          "type": "address"
        },
        {
          "indexed": true,
          "internalType": "address",
          "name": "approved",
          "type": "address"
        },
        {
          "indexed": true,
          "internalType": "uint256",
          "name": "tokenId",
          "type": "uint256"
        }
      ],
      "name": "Approval",
      "type": "event"
    },
    {
      "anonymous": false,
      "inputs": [
        {
          "indexed": true,
          "internalType": "address",
          "name": "owner",
          "type": "address"
        },
        {
          "indexed": true,
          "internalType": "address",
          "name": "operator",
          "type": "address"
        },
        {
          "indexed": false,
          "internalType": "bool",
          "name": "approved",
          "type": "bool"
        }
      ],
      "name": "ApprovalForAll",
      "type": "event"
    },
    {
      "anonymous": false,
      "inputs": [
        {
          "indexed": true,
          "internalType": "address",
          "name": "previousOwner",
          "type": "address"
        },
        {
          "indexed": true,
          "internalType": "address",
          "name": "newOwner",
          "type": "address"
        }
      ],
      "name": "OwnershipTransferred",
      "type": "event"
    },
    {
      "anonymous": false,
      "inputs": [
        {
          "indexed": true,
          "internalType": "address",
          "name": "from",
          "type": "address"
        },
        {
          "indexed": true,
          "internalType": "address",
          "name": "to",
          "type": "address"
        },
        {
          "indexed": true,
          "internalType": "uint256",
          "name": "tokenId",
          "type": "uint256"
        }
      ],
      "name": "Transfer",
      "type": "event"
    },
    {
      "inputs": [],
      "name": "GAME_ADDRESS",
      "outputs": [
        {
          "internalType": "address",
          "name": "",
          "type": "address"
        }
      ],
      "stateMutability": "view",
      "type": "function"
    },
    {
      "inputs": [
        {
          "internalType": "address",
          "name": "to",
          "type": "address"
        },
        {
          "internalType": "uint256",
          "name": "tokenId",
          "type": "uint256"
        }
      ],
      "name": "approve",
      "outputs": [],
      "stateMutability": "nonpayable",
      "type": "function"
    },
    {
      "inputs": [
        {
          "internalType": "address",
          "name": "owner",
          "type": "address"
        }
      ],
      "name": "balanceOf",
      "outputs": [
        {
          "internalType": "uint256",
          "name": "",
          "type": "uint256"
        }
      ],
      "stateMutability": "view",
      "type": "function"
    },
    {
      "inputs": [
        {
          "internalType": "uint256",
          "name": "tokenId",
          "type": "uint256"
        }
      ],
      "name": "getApproved",
      "outputs": [
        {
          "internalType": "address",
          "name": "",
          "type": "address"
        }
      ],
      "stateMutability": "view",
      "type": "function"
    },
    {
      "inputs": [
        {
          "internalType": "address",
          "name": "owner",
          "type": "address"
        },
        {
          "internalType": "address",
          "name": "operator",
          "type": "address"
        }
      ],
      "name": "isApprovedForAll",
      "outputs": [
        {
          "internalType": "bool",
          "name": "",
          "type": "bool"
        }
      ],
      "stateMutability": "view",
      "type": "function"
    },
    {
      "inputs": [
        {
          "internalType": "address",
          "name": "to",
          "type": "address"
        }
      ],
      "name": "mint",
      "outputs": [
        {
          "internalType": "uint256",
          "name": "",
          "type": "uint256"
        }
      ],
      "stateMutability": "nonpayable",
      "type": "function"
    },
    {
      "inputs": [],
      "name": "name",
      "outputs": [
        {
          "internalType": "string",
          "name": "",
          "type": "string"
        }
      ],
      "stateMutability": "view",
      "type": "function"
    },
    {
      "inputs": [],
      "name": "owner",
      "outputs": [
        {
          "internalType": "address",
          "name": "",
          "type": "address"
        }
      ],
      "stateMutability": "view",
      "type": "function"
    },
    {
      "inputs": [
        {
          "internalType": "uint256",
          "name": "tokenId",
          "type": "uint256"
        }
      ],
      "name": "ownerOf",
      "outputs": [
        {
          "internalType": "address",
          "name": "",
          "type": "address"
        }
      ],
      "stateMutability": "view",
      "type": "function"
    },
    {
      "inputs": [],
      "name": "renounceOwnership",
      "outputs": [],
      "stateMutability": "nonpayable",
      "type": "function"
    },
    {
      "inputs": [
        {
          "internalType": "address",
          "name": "from",
          "type": "address"
        },
        {
          "internalType": "address",
          "name": "to",
          "type": "address"
        },
        {
          "internalType": "uint256",
          "name": "tokenId",
          "type": "uint256"
        }
      ],
      "name": "safeTransferFrom",
      "outputs": [],
      "stateMutability": "nonpayable",
      "type": "function"
    },
    {
      "inputs": [
        {
          "internalType": "address",
          "name": "from",
          "type": "address"
        },
        {
          "internalType": "address",
          "name": "to",
          "type": "address"
        },
        {
          "internalType": "uint256",
          "name": "tokenId",
          "type": "uint256"
        },
        {
          "internalType": "bytes",
          "name": "data",
          "type": "bytes"
        }
      ],
      "name": "safeTransferFrom",
      "outputs": [],
      "stateMutability": "nonpayable",
      "type": "function"
    },
    {
      "inputs": [
        {
          "internalType": "address",
          "name": "operator",
          "type": "address"
        },
        {
          "internalType": "bool",
          "name": "approved",
          "type": "bool"
        }
      ],
      "name": "setApprovalForAll",
      "outputs": [],
      "stateMutability": "nonpayable",
      "type": "function"
    },
    {
      "inputs": [
        {
          "internalType": "bytes4",
          "name": "interfaceId",
          "type": "bytes4"
        }
      ],
      "name": "supportsInterface",
      "outputs": [
        {
          "internalType": "bool",
          "name": "",
          "type": "bool"
        }
      ],
      "stateMutability": "view",
      "type": "function"
    },
    {
      "inputs": [],
      "name": "symbol",
      "outputs": [
        {
          "internalType": "string",
          "name": "",
          "type": "string"
        }
      ],
      "stateMutability": "view",
      "type": "function"
    },
    {
      "inputs": [
        {
          "internalType": "uint256",
          "name": "tokenId",
          "type": "uint256"
        }
      ],
      "name": "tokenURI",
      "outputs": [
        {
          "internalType": "string",
          "name": "",
          "type": "string"
        }
      ],
      "stateMutability": "view",
      "type": "function"
    },
    {
      "inputs": [
        {
          "internalType": "uint256",
          "name": "",
          "type": "uint256"
        }
      ],
      "name": "tokens",
      "outputs": [
        {
          "internalType": "uint256",
          "name": "",
          "type": "uint256"
        }
      ],
      "stateMutability": "view",
      "type": "function"
    },
    {
      "inputs": [],
      "name": "totalSupply",
      "outputs": [
        {
          "internalType": "uint256",
          "name": "",
          "type": "uint256"
        }
      ],
      "stateMutability": "view",
      "type": "function"
    },
    {
      "inputs": [
        {
          "internalType": "address",
          "name": "from",
          "type": "address"
        },
        {
          "internalType": "address",
          "name": "to",
          "type": "address"
        },
        {
          "internalType": "uint256",
          "name": "tokenId",
          "type": "uint256"
        }
      ],
      "name": "transferFrom",
      "outputs": [],
      "stateMutability": "nonpayable",
      "type": "function"
    },
    {
      "inputs": [
        {
          "internalType": "address",
          "name": "newOwner",
          "type": "address"
        }
      ],
      "name": "transferOwnership",
      "outputs": [],
      "stateMutability": "nonpayable",
      "type": "function"
    }
  ],
  "bytecode": "0x60a060405234801561001057600080fd5b506040516115e43803806115e483398101604081905261002f916101a5565b338383600061003e83826102b9565b50600161004b82826102b9565b5050506001600160a01b03811661007c57604051631e4fbdf760e01b81526000600482015260240160405180910390fd5b6100858161009a565b506001600160a01b0316608052506103779050565b600680546001600160a01b038381166001600160a01b0319831681179093556040519116919082907f8be0079c531659141344cd1fd0a4f28419497f9722a3daafe3b4186f6b6457e090600090a35050565b634e487b7160e01b600052604160045260246000fd5b600082601f83011261011357600080fd5b81516001600160401b0381111561012c5761012c6100ec565b604051601f8201601f19908116603f011681016001600160401b038111828210171561015a5761015a6100ec565b60405281815283820160200185101561017257600080fd5b60005b8281101561019157602081860181015183830182015201610175565b506000918101602001919091529392505050565b6000806000606084860312156101ba57600080fd5b83516001600160401b038111156101d057600080fd5b6101dc86828701610102565b602086015190945090506001600160401b038111156101fa57600080fd5b61020686828701610102565b604086015190935090506001600160a01b038116811461022557600080fd5b809150509250925092565b600181811c9082168061024457607f821691505b60208210810361026457634e487b7160e01b600052602260045260246000fd5b50919050565b601f8211156102b457806000526020600020601f840160051c810160208510156102915750805b601f840160051c820191505b818110156102b1576000815560010161029d565b50505b505050565b81516001600160401b038111156102d2576102d26100ec565b6102e6816102e08454610230565b8461026a565b6020601f82116001811461031a57600083156103025750848201515b600019600385901b1c1916600184901b1784556102b1565b600084815260208120601f198516915b8281101561034a578785015182556020948501946001909201910161032a565b50848210156103685786840151600019600387901b60f8161c191681555b50505050600190811b01905550565b60805161124b61039960003960008181610203015261050f015261124b6000f3fe608060405234801561001057600080fd5b506004361061012c5760003560e01c80636a627842116100ad578063a22cb46511610071578063a22cb4651461027f578063b88d4fde14610292578063c87b56dd146102a5578063e985e9c5146102b8578063f2fde38b146102cb57600080fd5b80636a6278421461023857806370a082311461024b578063715018a61461025e5780638da5cb5b1461026657806395d89b411461027757600080fd5b806323b872dd116100f457806323b872dd146101c557806342842e0e146101d85780634f64b2be146101eb5780635b96f6af146101fe5780636352211e1461022557600080fd5b806301ffc9a71461013157806306fdde0314610159578063081812fc1461016e578063095ea7b31461019957806318160ddd146101ae575b600080fd5b61014461013f366004610e8b565b6102de565b60405190151581526020015b60405180910390f35b610161610330565b6040516101509190610ef8565b61018161017c366004610f0b565b6103c2565b6040516001600160a01b039091168152602001610150565b6101ac6101a7366004610f40565b6103eb565b005b6101b760085481565b604051908152602001610150565b6101ac6101d3366004610f6a565b6103fa565b6101ac6101e6366004610f6a565b61048a565b6101b76101f9366004610f0b565b6104aa565b6101817f000000000000000000000000000000000000000000000000000000000000000081565b610181610233366004610f0b565b6104cb565b6101b7610246366004610fa7565b6104d6565b6101b7610259366004610fa7565b6105ac565b6101ac6105f4565b6006546001600160a01b0316610181565b610161610608565b6101ac61028d366004610fc2565b610617565b6101ac6102a0366004611014565b610622565b6101616102b3366004610f0b565b61063a565b6101446102c63660046110f8565b6106af565b6101ac6102d9366004610fa7565b6106dd565b60006001600160e01b031982166380ac58cd60e01b148061030f57506001600160e01b03198216635b5e139f60e01b145b8061032a57506301ffc9a760e01b6001600160e01b03198316145b92915050565b60606000805461033f9061112b565b80601f016020809104026020016040519081016040528092919081815260200182805461036b9061112b565b80156103b85780601f1061038d576101008083540402835291602001916103b8565b820191906000526020600020905b81548152906001019060200180831161039b57829003601f168201915b5050505050905090565b60006103cd8261071b565b506000828152600460205260409020546001600160a01b031661032a565b6103f6828233610754565b5050565b6001600160a01b03821661042957604051633250574960e11b8152600060048201526024015b60405180910390fd5b6000610436838333610761565b9050836001600160a01b0316816001600160a01b031614610484576040516364283d7b60e01b81526001600160a01b0380861660048301526024820184905282166044820152606401610420565b50505050565b6104a583838360405180602001604052806000815250610622565b505050565b600781815481106104ba57600080fd5b600091825260209091200154905081565b600061032a8261071b565b60006104ea6006546001600160a01b031690565b6001600160a01b0316336001600160a01b031614806105315750336001600160a01b037f000000000000000000000000000000000000000000000000000000000000000016145b61054e57604051631648fd0160e01b815260040160405180910390fd5b60086000815461055d90611165565b9091555060085461056f90839061085a565b5050600854600780546001810182556000919091527fa66cc928b5edb82af9bd49922954155ab7b0942694bea4ce44661d9a8736c6880181905590565b60006001600160a01b0382166105d8576040516322718ad960e21b815260006004820152602401610420565b506001600160a01b031660009081526003602052604090205490565b6105fc610874565b61060660006108a1565b565b60606001805461033f9061112b565b6103f63383836108f3565b61062d8484846103fa565b6104843385858585610992565b60606106458261071b565b50600061065d60408051602081019091526000815290565b9050600081511161067d57604051806020016040528060008152506106a8565b8061068784610abd565b60405160200161069892919061118c565b6040516020818303038152906040525b9392505050565b6001600160a01b03918216600090815260056020908152604080832093909416825291909152205460ff1690565b6106e5610874565b6001600160a01b03811661070f57604051631e4fbdf760e01b815260006004820152602401610420565b610718816108a1565b50565b6000818152600260205260408120546001600160a01b03168061032a57604051637e27328960e01b815260048101849052602401610420565b6104a58383836001610b50565b6000828152600260205260408120546001600160a01b039081169083161561078e5761078e818486610c56565b6001600160a01b038116156107cc576107ab600085600080610b50565b6001600160a01b038116600090815260036020526040902080546000190190555b6001600160a01b038516156107fb576001600160a01b0385166000908152600360205260409020805460010190555b60008481526002602052604080822080546001600160a01b0319166001600160a01b0389811691821790925591518793918516917fddf252ad1be2c89b69c2b068fc378daa952ba7f163c4a11628f55a4df523b3ef91a4949350505050565b6103f6828260405180602001604052806000815250610cba565b6006546001600160a01b031633146106065760405163118cdaa760e01b8152336004820152602401610420565b600680546001600160a01b038381166001600160a01b0319831681179093556040519116919082907f8be0079c531659141344cd1fd0a4f28419497f9722a3daafe3b4186f6b6457e090600090a35050565b6001600160a01b03821661092557604051630b61174360e31b81526001600160a01b0383166004820152602401610420565b6001600160a01b03838116600081815260056020908152604080832094871680845294825291829020805460ff191686151590811790915591519182527f17307eab39ab6107e8899845ad3d59bd9653f200f220920489ca2b5937696c31910160405180910390a3505050565b6001600160a01b0383163b15610ab657604051630a85bd0160e11b81526001600160a01b0384169063150b7a02906109d49088908890879087906004016111bb565b6020604051808303816000875af1925050508015610a0f575060408051601f3d908101601f19168201909252610a0c918101906111f8565b60015b610a78573d808015610a3d576040519150601f19603f3d011682016040523d82523d6000602084013e610a42565b606091505b508051600003610a7057604051633250574960e11b81526001600160a01b0385166004820152602401610420565b805181602001fd5b6001600160e01b03198116630a85bd0160e11b14610ab457604051633250574960e11b81526001600160a01b0385166004820152602401610420565b505b5050505050565b60606000610aca83610cd2565b600101905060008167ffffffffffffffff811115610aea57610aea610ffe565b6040519080825280601f01601f191660200182016040528015610b14576020820181803683370190505b5090508181016020015b600019016f181899199a1a9b1b9c1cb0b131b232b360811b600a86061a8153600a8504945084610b1e57509392505050565b8080610b6457506001600160a01b03821615155b15610c26576000610b748461071b565b90506001600160a01b03831615801590610ba05750826001600160a01b0316816001600160a01b031614155b8015610bb35750610bb181846106af565b155b15610bdc5760405163a9fbf51f60e01b81526001600160a01b0384166004820152602401610420565b8115610c245783856001600160a01b0316826001600160a01b03167f8c5be1e5ebec7d5bd14f71427d1e84f3dd0314c0f7b2291e5b200ac8c7c3b92560405160405180910390a45b505b5050600090815260046020526040902080546001600160a01b0319166001600160a01b0392909216919091179055565b610c61838383610daa565b6104a5576001600160a01b038316610c8f57604051637e27328960e01b815260048101829052602401610420565b60405163177e802f60e01b81526001600160a01b038316600482015260248101829052604401610420565b610cc48383610e10565b6104a5336000858585610992565b60008072184f03e93ff9f4daa797ed6e38ed64bf6a1f0160401b8310610d115772184f03e93ff9f4daa797ed6e38ed64bf6a1f0160401b830492506040015b6d04ee2d6d415b85acef81000000008310610d3d576d04ee2d6d415b85acef8100000000830492506020015b662386f26fc100008310610d5b57662386f26fc10000830492506010015b6305f5e1008310610d73576305f5e100830492506008015b6127108310610d8757612710830492506004015b60648310610d99576064830492506002015b600a831061032a5760010192915050565b60006001600160a01b03831615801590610e085750826001600160a01b0316846001600160a01b03161480610de45750610de484846106af565b80610e0857506000828152600460205260409020546001600160a01b038481169116145b949350505050565b6001600160a01b038216610e3a57604051633250574960e11b815260006004820152602401610420565b6000610e4883836000610761565b90506001600160a01b038116156104a5576040516339e3563760e11b815260006004820152602401610420565b6001600160e01b03198116811461071857600080fd5b600060208284031215610e9d57600080fd5b81356106a881610e75565b60005b83811015610ec3578181015183820152602001610eab565b50506000910152565b60008151808452610ee4816020860160208601610ea8565b601f01601f19169290920160200192915050565b6020815260006106a86020830184610ecc565b600060208284031215610f1d57600080fd5b5035919050565b80356001600160a01b0381168114610f3b57600080fd5b919050565b60008060408385031215610f5357600080fd5b610f5c83610f24565b946020939093013593505050565b600080600060608486031215610f7f57600080fd5b610f8884610f24565b9250610f9660208501610f24565b929592945050506040919091013590565b600060208284031215610fb957600080fd5b6106a882610f24565b60008060408385031215610fd557600080fd5b610fde83610f24565b915060208301358015158114610ff357600080fd5b809150509250929050565b634e487b7160e01b600052604160045260246000fd5b6000806000806080858703121561102a57600080fd5b61103385610f24565b935061104160208601610f24565b925060408501359150606085013567ffffffffffffffff81111561106457600080fd5b8501601f8101871361107557600080fd5b803567ffffffffffffffff81111561108f5761108f610ffe565b604051601f8201601f19908116603f0116810167ffffffffffffffff811182821017156110be576110be610ffe565b6040528181528282016020018910156110d657600080fd5b8160208401602083013760006020838301015280935050505092959194509250565b6000806040838503121561110b57600080fd5b61111483610f24565b915061112260208401610f24565b90509250929050565b600181811c9082168061113f57607f821691505b60208210810361115f57634e487b7160e01b600052602260045260246000fd5b50919050565b60006001820161118557634e487b7160e01b600052601160045260246000fd5b5060010190565b6000835161119e818460208801610ea8565b8351908301906111b2818360208801610ea8565b01949350505050565b6001600160a01b03858116825284166020820152604081018390526080606082018190526000906111ee90830184610ecc565b9695505050505050565b60006020828403121561120a57600080fd5b81516106a881610e7556fea2646970667358221220c7df50463263ddbfde6a2eb82cae974e789b500d661782ac6428363f0cd6b6b364736f6c634300081b0033",
  "linkReferences": {},
  "deployedLinkReferences": {}
}